:020000040800F2
:10000000F0060020BD010008D11B0008C91B000834
:10001000CD1B000841060008E51B00080000000099
:10002000000000000000000000000000D91B0008D4
:100030004506000800000000D51B0008DD1B000875
:10004000D7010008D7010008D7010008D701000830
:10005000D7010008D7010008D7010008D701000820
:10006000D7010008D7010008D7010008D701000810
:10007000D7010008D7010008D7010008D701000800
:10008000D7010008D7010008D7010008D7010008F0
:10009000D7010008D7010008D7010008D7010008E0
:1000A000D7010008D7010008D7010008D7010008D0
:1000B000D7010008D7010008D7010008D7010008C0
:1000C000D7010008D7010008D7010008D7010008B0
:1000D000D7010008D7010008D7010008D7010008A0
:1000E000D7010008D7010008D701000800F002F886
:1000F00000F055F814A696E8000CB244B344DA4573
:1001000001D100F04CF8BAE80F000FA696E83000D5
:10011000A5EB040504EB0607AAEB0704A7F101070A
:100120004FEA15154FEA3414A4F10104AC4201D38F
:1001300000F035F813F0010F18BFFB1A43F001036C
:1001400000F001F8DBE718473822000058220000D1
:10015000103A24BF78C878C1FAD8520724BF30C8F3
:1001600030C144BF04680C60704700007047000055
:100170000023002400250026103A28BF78C1FBD8B0
:10018000520728BF30C148BF0B607047642900F098
:100190007380002070471FB51FBD10B510BD00F063
:1001A000BCF91146FFF7F7FF01F01EFD00F0DAF988
:1001B00003B4FFF7F2FF03BC00F0E2F909488047FF
:1001C00009480047FEE7FEE7FEE7FEE7FEE7FEE739
:1001D000FEE7FEE7FEE7FEE704480549054A064B51
:1001E00070470000E11B0008ED000008F00000204F
:1001F000F0060020F0020020F00200200FB41CB531
:10020000084B06AA7B4469460090059800F06DF9FA
:1002100004460020694600F07BF920461CBC5DF8CE
:1002200014FB00000903000070B5044685690068EE
:10023000C10601D5302600E02026C00707D070BDDA
:10024000D4E9012130469047206A401C20626D1E8F
:10025000F6D570BD70B5044685690078C00707D132
:1002600070BDD4E9012120209047206A401C206203
:100270006D1EF6D570BD00002DE9F0410646002444
:1002800010687529314616A510D0AFF300800028FC
:1002900002DA404213A507E031688A0701D512A5AA
:1002A00002E0490704D511A5012401E0AFF3008065
:1002B00000210A2206F1240709E0B0FBF2FCB0FBA2
:1002C000F2F302FB1C00303078541846491C002819
:1002D000F3D123462A463046BDE8F04100F0A7B8E6
:1002E000000000002D0000002B0000002000000096
:1002F0002DE9F05F894604464FF0000ADFF824B18B
:10030000FB44C0F820A02046E168884700287DD043
:10031000252806D0D4E901219047206A401C20629C
:10032000F1E700255F462046E16888472028064619
:1003300007DB312E05D2B81910F8200C08B105439F
:10034000F1E7A80701D525F00405C4F81CA0002793
:10035000C4F818A02A2E09D0304601F055FD38B354
:1003600004EB8708303EC8F8186019E059F8041B00
:10037000204604EB87029161E1688847012F064619
:1003800018D1E069002820DA25F020051DE0D8F812
:10039000180000EB800006EB40003038C8F8180069
:1003A0002046E1688847064601F02EFD0028EED180
:1003B000012F0AD02E2E08D12046E16888477F1CE5
:1003C0000646022F45F02005C4DBA069002803DAA9
:1003D000404245F00105A061E80701D025F0100575
:1003E000A6B1A6F14100192802D8203645F40065CF
:1003F0004A463146204625604D46FFF7C7FE60B1AC
:10040000012807D0ED1D25F0070000E007E000F10E
:10041000080978E705F1040975E730467AE7206AAC
:10042000BDE8F09F3E2000007047704770472DE9FF
:10043000F0470D4699469246044600F124080168AB
:10044000880604D5E06921F01001216000E0012058
:10045000A84201DD471B00E00027A1697A1902EBE1
:100460000900081AA0612078C00602D42046FFF7D0
:10047000DBFE002608E0D4E901211AF806009047C7
:10048000206A401C761C20624E45F4DB2078C006B2
:100490000AD52046FFF7C8FE06E0D4E90121302046
:1004A0009047206A401C2062381EA7F10107F4DC47
:1004B00007E0D4E9012118F805009047206A401CA4
:1004C0002062281EA5F10105F3DC2046FFF7C2FEDD
:1004D0002078000602D50220BDE8F0870120FBE766
:1004E00001694A1C02610878704700B58FB0CDE9F8
:1004F00001310021059105497944CDE903101146E8
:100500006846FFF7F5FE0FB000BD0000E5FFFFFFF6
:100510000A6802F8010B0A607047754600F02CF873
:10052000AE4605006946534620F00700854618B0E0
:1005300020B5FFF751FEBDE820404FF000064FF018
:1005400000074FF000084FF0000BAC46ACE8C009C4
:10055000ACE8C009ACE8C009ACE8C00921F007016B
:100560008D46704710B50446AFF300802046BDE8C5
:100570001040FFF71DBE000000487047100000202B
:1005800001491820ABBEFEE72600020070470000BC
:10059000B0B582B004460020019021688A68D20775
:1005A0004BD1886840F00100886040F20800C2F238
:1005B000000000684DF68361C4F21B31A0FB01010D
:1005C000880C01900198A0B1019801380190019820
:1005D00078B1019801380190019850B10198013823
:1005E0000190019828B101980138019001980028E4
:1005F000EAD100F0A9FC21688968C9071CD1054629
:1006000003E000BF8068C00716D100F09DFC411BCD
:1006100020680329F6D38168C907F3D1A06A40F0A6
:100620001000A062E06A40F00100E062002084F85F
:100630002400012002B0B0BD002002B0B0BD000017
:10064000FEE700007047000070B581B00022009204
:1006500090F82420012A03D10221084601B070BD80
:100660004A680123062A02EB820E80F8243007D85C
:10067000D0F800C06FF004030CF134060CE000BFAA
:10068000D0F800C00C2A87BF0CF12C066FF0400395
:100690000CF130066FF022030EEB03021F233468C7
:1006A00003FA02F50B6824EA050503FA02F22A436D
:1006B0003260092B03EB43021AD9DCF80C601E3AB6
:1006C000072589689540AE43914023F001023143EC
:1006D000102ACCF80C1015D142F20041C4F20101ED
:1006E0008C4517D0816A41F02001816201210AE026
:1006F000DCF81030072689689640B34391401943CF
:10070000CCF810100021002280F82420084601B007
:1007100070BD00BF89680902F4D4DCF80810102B02
:1007200041F40001CCF80810ECD140F20801C2F20B
:10073000000109684DF68362C4F21B32A1FB02126C
:10074000910C01EB81014900009100990029D9D059
:1007500000990139009100990029D3D000990139FD
:10076000009100990029CDD000990139009100999C
:100770000029C7D0009901390091009900294FF054
:100780000001E5D1BFE700000068C06C70470000C1
:10079000002804BF01207047B0B50446806A28B124
:1007A00021688868C0070CD115E000BF0020E06216
:1007B00084F82400204600F097F821688868C00774
:1007C00009D0886820F00100886000F0BDFB216836
:1007D0008A68D20726D1A06AC0063AD4A06A41F23C
:1007E000021290430230A062E069D4E9013240EA8B
:1007F000030C531EB3FA83F35D091346B2F5807FF1
:1008000018BF2B02207D257B01284CEA45002CD106
:1008100035B3A56A45F02005A562E56A45F00105F6
:10082000E56222E0054602E08868C007D3D000F008
:100830008BFB401B21680328F6D38868C007F3D0E0
:10084000A06A40F01000A062E06A40F00100E0629F
:10085000A06AA06A40F01000A0620120B0BD00BFF5
:10086000A56903EB4533A3F5C0534D68B2F5807F0E
:1008700025F4694543EA05034B608B684FF2FD752B
:10088000CFF6E17503EA050343EA00038B6001D06C
:10089000012A07D122690023CFF6F07303EB02523D
:1008A00001E000BF0022CB6A23F470031A43CA623E
:1008B000896840F6FE62CFF61F721140814207D16F
:1008C0000020E062A16A012262F30101A162B0BDD1
:1008D000A06A40F0100020F00200A062E06A40F040
:1008E0000100E0620120B0BD80B586B0014640F64F
:1008F0000000C4F20100096800F5E05291424FF097
:100900000001CDE90411CDE9021101D006B080BD8E
:1009100041F21801C4F202010A6842F400720A604E
:100920000A6802F400720192019A0A6842F0040215
:100930000A60096801F00401019101990121029105
:100940000321039102A900F0F7F906B080BD000071
:100950002DE9F04182B000270D460446019700F0D2
:10096000F3FA21688A68D20544D406464868C0056F
:1009700003D4C86A10F4700F46D040F20800C2F2E7
:100980000000076842F292480220C1F2492800F0B4
:1009900085FB216844F624130A69B7FBF0F0C2F224
:1009A00092431A4206D1CA6844F62413C0F2920355
:1009B0001A425BD00A6912EA080F07D1CA6842F2EC
:1009C0009243C0F249031A4200F0C0800A6949F21A
:1009D0004923C0F224031A424FF0FC0254D1CF68DD
:1009E0001F4208BF5422019B02FB00F7BB4250D3B9
:1009F000C3E000BFA06A40F02000A06284F8247029
:100A0000012002B0BDE8F0810868800700F1B580E0
:100A1000681C00F0A880FDB90868800770D50868D8
:100A2000800700F1AA800868800769D508688007F8
:100A300000F1A3800868800762D50868800700F18C
:100A40009C80086880075BD508688007E4D594E03F
:100A50000868800700F1918000F076FA801B216819
:100A6000A842F5D908688007F2D449E00A6912EA79
:100A7000080F4FF0290207D1CB6842F29247C0F22B
:100A800049073B4208BF1422019B02FB00F7BB420F
:100A900073D2681C52D05DBB0198B84230D3019824
:100AA000013001900198B84267D20198B84227D32B
:100AB0000198013001900198B8425ED20198B84285
:100AC0001ED30198013001900198B84255D2019887
:100AD000B84215D30198013001900198B842DBD398
:100AE0004BE000BF0198013001900198B84235D227
:100AF00000F02AFA801BA842F4D90198B842F1D23A
:100B0000A06A40F00400A062002084F824000320C2
:100B100002B0BDE8F08100BF01980130019001985A
:100B2000B8422AD20198013001900198B84224D2EB
:100B30000198013001900198B8421ED2019801300D
:100B400001900198B842E7D317E000BF5422019BFF
:100B500002FB00F7BB429CD30FE000BF21680CE012
:100B60000868800709D40868800706D408688007E9
:100B70005CBF08685FEA8070F2D56FF01200086011
:100B8000A06A40F40070A062886800F46020B0F5AC
:100B9000602F01D1207B18B1002002B0BDE8F081A8
:100BA000A06A20F48070A062A06AC004F4D4A06A95
:100BB00040F00100A062002002B0BDE8F08100001A
:100BC00010B5044690F82400012804BF022010BD8F
:100BD000012084F824002046FFF7DAFC20B1002031
:100BE00084F82400012010BD42F2044C2068A16A60
:100BF000C4F2010C40F2013291430CF57F7201F511
:100C000080719042A16229D0A16A21F48011A16271
:100C10004168490504D5A16A012363F30D31A1623E
:100C2000A16A0023C9044FF0000144BFE16A21F02A
:100C30000601E1626FF0020184F8243001608168EE
:100C400001F46021B1F5602F1BD1904214D081686E
:100C500041F4A0018160002010BD00BFDCF800104D
:100C600011F4702FD0D0A16A41F48011A162DCF898
:100C700000104905CFD4D3E7DCF8001011F4702F31
:100C8000E5D0816841F480118160002010BD000032
:100C9000B0B5044690F82400012804BF0220B0BD7E
:100CA0000121206884F824108168C90709D081686F
:100CB00021F00101816000F047F921688968C907C6
:100CC0000ED1214651F8280F41F2011220EA02020A
:100CD000002042F001020A60002184F82410B0BD17
:100CE000054602E08068C007EBD000F02DF9411BFB
:100CF00020680329F6D38168C907F3D0A06A21468A
:100D000040F01000A06251F82C2F0120E1E7000014
:100D1000B0B5044600F018F9054640F20000C2F2F2
:100D200000000078611C18BF044400BF00F00CF9FB
:100D3000401BA042FAD3B0BD2DE9F04F82B00E683F
:100D4000002E00F0FD8041F20042C4F201020423B3
:100D500040F2004E904208BF03234FF6FF7CC4F2DE
:100D6000010E009300240123C1F2100C4FF0000A81
:100D70004FF000094BE000BF41F20002C4F2010253
:100D8000009F904208BF022704F00C030F229A40F4
:100D90002BEA020207FA03F34FEA9A051A4346F8D0
:100DA00025204E6840F20C45F202DEF8082054BFC0
:100DB00022EA080242EA0802C4F20105CEF808203D
:100DC0002A68B30254BF22EA080242EA08022A60F3
:100DD000B303DEF8042054BF22EA080242EA080204
:100DE000F303CEF80420DEF800204FF0010354BFD7
:100DF00022EA080242EA0802CEF800200E680AF150
:100E0000010A36FA0AF204F1040400F0998003FAA8
:100E10000AFB16EA0B08F1D04E68664512DC122E6A
:100E200056D8DFE806F0350B4D4955555555555503
:100E30005555555555555545510000BFD1F80C90A5
:100E400046E000BF4FF6FF72C1F2210296420FDC6E
:100E50000022C1F2110296421AD00022C1F21202FF
:100E6000964215D00022C1F22102964210D02FE006
:100E70000022C1F2220296420AD00022C1F23102BF
:100E8000964205D00022C1F23202964220D100BF24
:100E90008A684AB1012A14BFC0F814B0C0F810B073
:100EA0004FF0080914E000BF4FF0040910E000BF44
:100EB000CA6802F104090BE04FF0000908E000BF26
:100EC000CA6802F1080903E0CA6802F10C0900BF10
:100ED00002462646B8F5807F24BF0432203E1768BC
:100EE0000F25B54027EA050509FA06F635431560D2
:100EF000CA79D2067FF582AF41F21803C4F2020329
:100F00001A68AEF57E7642F001021A601A6802F0A5
:100F100001020192019A2AF0030256F802B040F64B
:100F20000002C4F20102904208D040F60042C4F22E
:100F3000010290427FF420AF012725E7002723E735
:100F400002B0BDE8F08F000040F2E800C2F20000FD
:100F50000068704740F2000040F2E801C2F2000071
:100F6000C2F2000100780A6810440860704700006F
:100F700080B542F20000C4F20200016841F01001A5
:100F80000160032000F07AF80F2000F005F800F06F
:100F900027F8002080BD000070B540F20006C2F2C4
:100FA000000640F208013278C2F200014FF47A7371
:100FB0000968B3FBF2F20446B1FBF2F1084600F017
:100FC00071FC0F2C4FF0010508D838B94FF0FF30F5
:100FD00021460022002500F025F87460284670BDE7
:100FE00082B041F21800C4F202000168042241F00C
:100FF00001010160016801F001010191019941685D
:1010000041F080514160406800F0805000900098AD
:101010000420C4F20100016862F31A61016002B0A9
:101020007047000010B54EF60C5CCEF2000CDCF8F8
:101030000030C3F3022E8EF00704042C28BF0424D2
:10104000BEF103034FF0FF3E0EFA04F438BF002355
:10105000A14399400EFA03F39A43114300F00F02A3
:1010600000F160430901043A03F564436244002837
:1010700048BF02F10C03197010BD00004EF60C5170
:10108000CEF200010A684FF6FF031A4060F30A220D
:1010900042F0806040F0FD7008607047012821D068
:1010A00002280DD0102808D141F20401C4F2020137
:1010B0000A6851F8040CC00134D40020704700BF06
:1010C00080B500F0DBF941F20401C4F202010968C5
:1010D0000222C1F3813102EB4101B0FBF1F0BDE826
:1010E0008040704741F20400C4F20200C16940F23E
:1010F00002320A40B2F5817F04BF4FF400407047CE
:1011000001F44071B1F5407F18D0B1F5007F1CBFEC
:1011100000207047006A49F64041800701EAE0700C
:10112000704700BFC2F3834015A3185CD2030DD4EF
:1011300040F60012C0F23D02504313E050F8040C98
:101140004FF22441800301EAE07070470A6810A35F
:10115000C2F340429A5C41F20023C0F27A03B3FB2F
:10116000F2F250430968490248BF70474AF6AB2182
:101170004000CAF6AA21A0FB01014808704700BF41
:1011800002030405060708090A0B0C0D0E0F1010C8
:10119000010200002DE9F04182B00446007841F2DE
:1011A0001C06C007C4F202064AD030685FEAC008D5
:1011B00008D4306840F080503060306800F08050D3
:1011C0000190019847F20007C4F200073868C00593
:1011D00012D4386840F480703860FFF7B5FE0546D9
:1011E0003868C00508D4FFF7AFFE401B6428F7D964
:1011F000032002B0BDE8F081706810F4407012D096
:10120000616801F4407188420DD0706840F240423C
:10121000C4F24222012320F4407113600023C0076E
:101220001360716026D17068616820F440700843D3
:10123000B8F1000F706003D4306820F08050306047
:101240002068810707D556F8181CA26821F4404190
:10125000114346F8181CC00607D556F8180CE1686B
:1012600020F48000084346F8180C002002B0BDE8C6
:10127000F08100BFFFF768FE054641F2883700BFE6
:1012800070688007CFD4FFF75FFE401BB8424FF075
:101290000300F5D9EAE70000002804BF01207047E9
:1012A0002DE9F04381B042F20008C4F2020804467E
:1012B000D8F800000D4600F0070081420CD9D8F89C
:1012C000000020F007002843C8F80000D8F800000C
:1012D00000F00700A8426CD1206841F204098107A0
:1012E000C4F2020917D5410705D5D9F8001041F419
:1012F000E061C9F80010010705D5D9F8001041F4E4
:101300006051C9F80010D9F80010A26821F0F0016E
:101310001143C9F80010C00742D1D8F8000000F00E
:10132000070085420CD2D8F8000020F007002843BF
:10133000C8F80000D8F8000000F00700A84238D133
:101340002068410707D5D9F80010E26821F4E06170
:101350001143C9F80010000708D5D9F80000216929
:1013600020F4605040EAC100C9F80000D9F800201C
:1013700002F00C00082841F20020C0F27A004DD1A2
:1013800042F26D33C2F38341C0F60003595CD203CD
:1013900038D440F60010C0F23D0048433EE000BFA4
:1013A000606859F8041C022808D0012826D1890356
:1013B00006D4012001B0BDE8F08300BF8901F8D553
:1013C000D9F8001021F003010843C9F80000FFF725
:1013D000BBFD064641F28837D9F80000616800F08D
:1013E0000C00B0EB810F98D0FFF7AEFD801BB84228
:1013F000F2D9032001B0BDE8F08300BF8907D8D53A
:10140000DEE700BFD9F8002042F26B33C2F340425E
:10141000C0F600039A5C4843B0FBF2F0D9F8001024
:1014200042F25332C1F30311C0F60002515C40F2A4
:10143000080220FA01F140F20400C2F20000006844
:10144000C2F200021160FFF7A7FD002001B0BDE865
:10145000F083000040F2080041F20401C2F20000F3
:10146000C4F202010068096842F26332C1F302214A
:10147000C0F60002515CC8407047000040F208000E
:1014800041F20401C2F20000C4F2020100680968DE
:1014900042F26332C1F3C221C0F60002515CC8407F
:1014A00070470000002804BF012070472DE9F0417B
:1014B00082B00446007841F20006C007C4F202067A
:1014C0000CD0706800F00C00042840F08180306877
:1014D000800303D56068002800F0468120788007EB
:1014E0001BD5706810F00C0F09D0706800F00C006C
:1014F000082840F087807068C00300F1838030685E
:10150000800703D52069012840F02E813068616989
:1015100020F0F80040EAC10030602078000713D4C2
:10152000207840072CD4E569002D00F01881706800
:1015300000F00C00082840F0A780012D40F0048145
:10154000012002B0BDE8F081A069002800F084808D
:101550000020C4F242200121C0F88014FFF7F4FCFF
:10156000054600BF706A800700F1B280FFF7ECFC0F
:10157000401B0228F6D9032002B0BDE8F08100BF6D
:10158000F0695FEAC00808D4F06940F08050F0616B
:10159000F06900F080500090009847F20007C4F214
:1015A00000073868C00549D4386840F48070386056
:1015B000FFF7CAFC054600BF3868C0053ED4FFF7F8
:1015C000C3FC401B6428F7D9032002B0BDE8F081BA
:1015D000706800F00C00082803D17068C0033FF564
:1015E00076AF61683068002900F00C81B1F5A02F5A
:1015F00000F00081B1F5803F40F01A8140F4803066
:101600001CE100BF2069002840F20000C4F2422023
:1016100000F0888001210160FFF796FC054600BFBD
:10162000306880073FF572AFFFF78EFC401B022841
:10163000F6D9032002B0BDE8F08100BFE168306A4E
:10164000002900F09D80052900F09280012940F0DA
:10165000AF8040F00100B1E00020C4F24220002140
:10166000C0F88014FFF770FC054600BF706A800761
:101670007FF556AFFFF768FC401B0228F6D9032020
:1016800002B0BDE8F08100BF0027C4F2422700206D
:101690003866FFF759FC022D05460DD130688001F0
:1016A00040F1DE80FFF750FC401B02284FF00300A2
:1016B000F4D902B0BDE8F081306880014FD5FFF762
:1016C00043FC401B02284FF00300F5D9F1E700BFAF
:1016D00040F20800C2F20000006844F6D351C1F2A3
:1016E0006201A0FB0101480A019000BF00BF019800
:1016F000411E002801913FF413AF00BF0198411E25
:10170000002801913FF40CAF00BF0198411E002852
:1017100001913FF405AF00BF0198411E00280191DF
:10172000E4D1FDE600210160FFF70EFC054600BF95
:10173000306880077FF5F1AEFFF706FC401B0228FA
:101740004FF00300F4D9B4E77068216A00F48032E6
:101750008A4209D1616A00F47010884204D10020E5
:1017600002B0BDE8F08100BF012002B0BDE8F08109
:1017700040F004003062306A40F001001EE000BF1B
:1017800020F001003062306A20F004003062FFF780
:10179000DBFB054641F28837306A800720D5FFF72A
:1017A000D3FB401BB8424FF00300F5D981E700BFDF
:1017B00020F001003062306A20F004003062FFF750
:1017C000C3FB054641F28837306A800708D4FFF72B
:1017D000BBFB401BB842F7D9032002B0BDE8F08143
:1017E000B8F1000F3FF59FAEF06920F08050F06136
:1017F00099E600BF40F480203060306840F48030CB
:101800001CE000BF20F480303060306820F480207D
:101810003060FFF799FB0546306880037FF55EAEC8
:10182000FFF792FB401B64284FF00300F4D940E718
:1018300020F480303060306820F480203060FFF782
:1018400083FB0546306880033FF548AEFFF77CFB1D
:10185000401B6428F6D9032002B0BDE8F08100BF28
:10186000206AB0F5803F05D17168A26821F400318B
:10187000114371607168626A21F474111143084365
:10188000706001203866FFF75FFB04463068800116
:101890003FF565AFFFF758FB001B02284FF0030030
:1018A000F4D906E7411E0020B0EB116F1CBF0120E8
:1018B00070474EF21002CEF2000251604EF62351F4
:1018C000CEF20001F0230B70072190601160704789
:1018D000002804BF0120704710B5044690F841006D
:1018E00028B9002084F84000204600F063F8242046
:1018F00084F841002068D4E90212C36823F400533D
:10190000C360036923F440531A430261D4E90423FA
:101910001143C268194341F20C639A431143C160F9
:101920004169A26921F44071114343F60002C4F2F7
:1019300001029042416103D0FFF78CFD02E000BF3D
:10194000FFF79CFDD4E90023192148439900B0FB1F
:10195000F1F048F21F5CC5F2EB1CA0FB0C314FF616
:101960009C734909C0F6FF7301FB0300322303EBAC
:101970000010A0FB0C03F02000EA531000EB011054
:10198000C3F34311084490601069202120F4904073
:101990001061506920F02A005061D06840F4005076
:1019A000D0600020606484F8411084F842106063C5
:1019B00010BD000070B586B040F60004C4F201040A
:1019C000006804F54051002688420596CDE903667B
:1019D000029601D006B070BD41F21800C4F20200B8
:1019E000016802AD41F480410160016801F4804169
:1019F00001910199016841F00401016000682946E4
:101A000000F00400019001984FF400700290022051
:101A10000390032005902046FFF78EF94FF4806075
:101A2000CDE90206204629460496FFF785F906B05F
:101A300070BD00002DE9F04381B0044690F84100EC
:101A4000202809D100294FF0010018BF002A07D132
:101A500001B0BDE8F08300BF022001B0BDE8F08313
:101A60000020606421201D460E4684F84100174680
:101A7000FFF76AFAA784E784A1688146B1F5805F21
:101A800002D1206900285DD037460020E28C216811
:101A9000002A5DD06A1C24D0002D4AD0804600BFA9
:101AA0000868000608D4FFF74FFAA0EB0900A84227
:101AB0007AD82168C868F3E717B117F8010B04E07A
:101AC00038F8020B00276FF35F204860E08C013884
:101AD000E084E08C0028E3D13AE000BF0A681206F7
:101AE00009D40A68120606D40A6812065CBF0A689E
:101AF0005FEA0262F2D51FB117F8012B05E000BFC3
:101B000030F8022B00276FF35F224A60E28C013A23
:101B1000E284E28C002AE4D11AE000BF30F8022B04
:101B200000276FF35F224A60E28C013AE284E28C84
:101B300072B10A68120635D5002FEFD017F8012BC5
:101B4000F1E700BF00273046E28C2168002AA1D1CE
:101B5000086840061ED42DB3681C14D108684006DE
:101B60002AD40868400627D40868400624D40868A8
:101B700040064FF00000F1D50DE000BF2068C168BD
:101B80000068400618D4FFF7DFF9A0EB0900A8426F
:101B9000F4D909E00020202184F8411001B0BDE80B
:101BA000F08300BFFFF7D0F90320202184F8411013
:101BB00001B0BDE8F08300BF0020202184F841106F
:101BC00001B0BDE8F0830000FEE70000FEE7000082
:101BD000FEE700007047000070470000FFF7BAB949
:101BE00070470000FEE700009EB0FFF7C1F9002437
:101BF0000120CDE90644CDE90444019005904FF45D
:101C0000E0104FF4803102250A9001A81894CDE924
:101C10001644CDE90214CDE90851FFF743FC28B181
:101C2000EFF3108072B600BFFEE700BF0F20CDE9D2
:101C300019054FF48060CDE91C0419A802211B94FA
:101C4000FFF72AFB20B1EFF3108072B6FEE700BF6A
:101C5000022015904FF40040179015A8FFF79AFA4C
:101C600020B1EFF3108072B6FEE700BF41F218001A
:101C7000C4F20200016842F2004641F02001016016
:101C80000168C4F2010601F0200101910199016887
:101C9000002441F0040101600068012500F0040007
:101CA0000190019840F27000C2F200004FF46021F0
:101CB00005730475C161C0E9006484600561FEF7C5
:101CC00067FD28B1EFF3108072B600BFFEE700BFDA
:101CD000CDE9014540F270040720C2F2000401ADD5
:101CE000039020462946FEF7AFFC28B1EFF31080A1
:101CF00072B600BFFEE700BF06F5A051204640F8CF
:101D0000301F4FF4165100220C23C0E90112C0E924
:101D10000322C0E90532C261FFF7DAFD20B1EFF31B
:101D2000108072B6FEE700BF05F1040A04F1300B23
:101D30002046FEF745FF20464FF0FF31FEF708FE34
:101D40002046FEF721FD06462046FEF7A1FF1FFABA
:101D500086F84FF4FA7008FB00F000F09DF94FF29E
:101D60000001C4F27F5100F0B9F8064600F078F99E
:101D7000814600F091F90146304600F06DFA0021ED
:101D8000C4F2C82100F09CF900F06AF9064644F25A
:101D90004140C3F643500190504618A14246FEF719
:101DA0002DFA42F220024119C4F650524A6042F61E
:101DB0003262C3F6355200F10C078A60E81910A1AF
:101DC0004A463346FEF71AFA47F220523844C2F622
:101DD00067722A5043F26D322918C0F60D2208307E
:101DE0004A6082B2584629464FF0FF33FFF722FE81
:101DF0004FF4FA70FEF78CFF9AE700BF25640000ED
:101E000025642E253032640030380A2801D20120A2
:101E1000704700207047000090EA010F48BF81F032
:101E2000004100F12082421A3CBF801A89184FEA13
:101E3000D052A2EBD1534FF07F4C1CEA410F18BF98
:101E40009CEA026F00F03B804FF0004C4CEA00200F
:101E50004CEA012121FA03FC10EB0C0C1ED202F11A
:101E6000FF325FEA1C2040EBC25038BF70471CF0C5
:101E70007F0F4FEA400C18BFBCF17F4F38BF70474F
:101E8000C3F12003994008BF20F00100BCF17F4F4F
:101E900038BF7047A0F1C04000F0D9B94FEA3C000C
:101EA000000A40EBC25028BF1CF0FF0F4FEA400C65
:101EB000E6D018BFBCF17F4F38BF7047EAE79CEA15
:101EC000026F05D010EA5C0F08BF00F000407047B9
:101ED00010B500F076F900BF64FBBE3E4FF47F0CF6
:101EE0001CEAD0121EBF1CEAD11392EA0C0F93EA2F
:101EF0000C0F00F0858090EA010F48BF42F4807219
:101F000040F4000C41F400002CF07F4120F07F40B1
:101F100000B5A2EB030281420FF2081CACEB504E5D
:101F20009EF800E0C0F100004FEA4E0E00FB0EFCF0
:101F300038BF49004FEA2C1C0CFB0EF34FEACE1EB3
:101F40000EEB635E4FEA112C0EFB0CFC4FEAC12135
:101F50004FEA1C5300FB031102F5FA024FEA112C61
:101F60000EFB0CFC4FEA01314FEADC4C00FB0C117C
:101F700042EB2242C14228BF09184CEB03335DF803
:101F800004EB10EB410143EBC250B2F57C0F38BFBC
:101F9000704729D512F0F00F1CBF00F1C04000F0CF
:101FA00000407047008182838485868788898B8C76
:101FB0008D8E8F919293959697999A9C9D9FA0A2B2
:101FC000A3A5A7A8AAACAEB0B2B3B5B7B9BCBEC002
:101FD000C2C5C7C9CCCED1D4D7D9DCDFE2E6E9ECA3
:101FE000F0F3F7FAFE0000004FEA400C0CF1807CA1
:101FF000BCF17E4F28BF7047B0F1C04000F027B958
:102000000CEAD11390EA010F48BF42F48072624596
:1020100038BF634507D213F47F0F16D080EA010062
:1020200000F00040704710B500F0CBF8097EFC3E90
:1020300000F005B880EA010000F00040704780EA37
:10204000010000F0004000F002B912F47F0F04BF5D
:102050000248704780EA010000F0F9B80000C07F34
:1020600041000B0ED3F19E0208D950F400034FEA51
:10207000032323FA02F048BF4042704710B500F036
:10208000A0F800BF49922480002070476FF0004202
:1020900082EA200070470000B0FA80F310FA03F2E1
:1020A000C3F19D030AD0D90501EB1220530638BFB6
:1020B000704700F1010008BF20F0010070470000E8
:1020C0004FF47F0C1CEAD0121EBF1CEAD11392EA17
:1020D0000C0F93EA0C0F00F0478090EA010F48BF05
:1020E00042F480724FF0004C4CEA00204CEA01218F
:1020F00002EB0302A0FB0113A2F50002002918BFA6
:1021000043F001035B0028BF4FEA330342EB224256
:102110005FEA132C4CEBC2502EBFBCEB436FB2F501
:102120007C0F70474FEA036CBCF1004F08BF20F0F2
:102130000100B2F57C0F38BF70470BD582F0FF026B
:1021400012F5803FC8BF704700F1C040D8BF00F013
:102150000040704700F5000C5FEA4C0C48BF704728
:10216000B0F1C04000F073B80CEAD11390EA010F4F
:1021700048BF42F48072624538BF634504D280EAAA
:10218000010000F00040704710B500F01AF800BFE1
:102190008900013E00F007B800F009B85FEA410C81
:1021A0005FEA1C6C08D080EA010000F050B85FEADA
:1021B000400C5FEA1C6CF6D14FF00040A0F58000A7
:1021C00070470EF1020E2EF0030E5EF8044B24420F
:1021D00004D44FEA4102B2F17F4F11D84FEA4003D5
:1021E000B3F17F4F0CD80ED14FEAD07C0CEB4C0CE6
:1021F0000CF1020CB2F17F4F08BF4CEBD17C04E034
:102200004FF0080C01E04FEAD17C0CEB4C0324FAB0
:1022100003F404F00704B4F1040C06D20EEB840CB2
:10222000BDE810404CF0010C6047DFE80CF00708F7
:1022300002024FF00040A0F5800010BD08464200A9
:1022400018BFD2F1807288BF00F0004010BDFF219E
:1022500041EAD050C005704790EA010F48BF81F0B5
:1022600000413FF5E0AD421A04D882F00042A0EBF5
:10227000020011444FEAD052A2EBD1534FF07F4CF1
:102280001CEA410F18BF9CEA026F4AD04FF0004C85
:102290004CEA00204CEA012121FA03FCB0EB0C0CC3
:1022A0000FD412F0FE0F36D05FEA4C001DD500129D
:1022B00040EBC25038BF70471CF03F0F18BF70474B
:1022C0000BE05FEA1C20A2F1010240EBC25038BFD4
:1022D00070471CF07F0F18BF7047C3F1200399406F
:1022E00014BF401E20F0010070474FEA12238008FF
:1022F00008BF7047B0FA80FCA2EB0C02CCF1280CAE
:1023000060FA0CF093EA122F04BF00EBC250704742
:102310004FEAC3707047130A5FEADC1008BF7047CA
:10232000F6E79CEA026F04D010EA5C0F08BF0020B9
:10233000704710B5FFF745FF40DFF63E81F00040E3
:1023400070470400000800000000000000020001C7
:10235000000010000000000000000001020304065D
:10236000070809000000000102030401020203043F
:1023700005060708090A0B0C0D0E0F1010000000CF
:10238000A0230008000000201000000050010008F9
:10239000B023000810000020E006000070010008D3
:1023A000010000001000000000127A000000000090
:04000005080000ED02
:00000001FF
