:020000040800F2
:10000000880A00206102000885420008BD38000807
:1000100035410008311A0008E543000800000000DF
:100020000000000000000000000000005D43000828
:10003000F11C00080000000089420008DD430008B0
:100040007B0200087B0200087B0200087B0200089C
:100050007B0200087B0200087B0200087B0200088C
:100060007B0200087B0200087B0200087B0200087C
:100070007B0200087B0200087B0200087B0200086C
:100080007B0200087B0200087B0200087B0200085C
:100090007B0200087B0200087B0200087B0200084C
:1000A0007B0200087B0200087B0200087B0200083C
:1000B0007B0200087B0200087B0200087B0200082C
:1000C0007B0200087B0200087B0200087B0200081C
:1000D0007B0200087B0200087B0200087B0200080C
:1000E0007B0200087B0200087B02000800F002F897
:1000F00000F0A6F814A696E8000CB244B344DA4522
:1001000001D100F09DF8BAE80F000FA696E8300084
:10011000A5EB040504EB0607AAEB0704A7F101070A
:100120004FEA15154FEA3414A4F10104AC4201D38F
:1001300000F086F813F0010F18BFFB1A43F001031B
:1001400000F001F8DBE71847F058000010590000F4
:10015000103A24BF78C878C1FAD8520724BF30C8F3
:1001600030C144BF04680C60704700007047000055
:100170000023002400250026103A28BF78C1FBD8B0
:10018000520728BF30C148BF0B6070476E2900F08E
:100190006183702900F08D81662905F0248265292C
:1001A00005F02182672905F01E82612905F01D8274
:1001B00003681B0A28BF41F08001692900F0FE8016
:1001C000642900F0FB80752900F0F8806F2900F0A9
:1001D0005786782900F05981E92900F0F185E42952
:1001E00000F0EE85F52900F0EB85EF2900F054864C
:1001F000F82900F058810368DB0928BF41F080012D
:10020000632900F07385732900F07885E32901F0F4
:100210005F80F32901F06480002070471FB500F073
:1002200045FE04000020002104F02EFE401C60600A
:100230000020002104F012FEE0601FBD10B510BDCB
:1002400001F0ECF81146FFF7E9FF04F0CDF801F0FA
:1002500013F903B4FFF7F2FF03BC01F057F90000F4
:100260000948804709480047FEE7FEE7FEE7FEE74A
:10027000FEE7FEE7FEE7FEE7FEE7FEE70448054986
:10028000054A064B70470000E1430008ED000008F6
:1002900088040020880A00208806002088060020A4
:1002A0007CB51D4616460C00009007D04142A14285
:1002B00002D32044401E01E04FF0FF30064B7B4448
:1002C0002A4669460190304600F0EBFC002C02D033
:1002D000009A002111707CBD070A00000FB41CB504
:1002E0000C0007AA009007D04142A14202D320444B
:1002F000401E01E04FF0FF30074B7B446946019000
:10030000069800F0CEFC0021002C01D0009A11705C
:100310001CBC5DF814FB0000CB09000070B504465E
:1003200085690068C10601D5302600E02026C00797
:1003300007D070BDD4E9012130469047206A401CA7
:1003400020626D1EF6D570BD70B5044685690078D3
:10035000C00707D170BDD4E9012120209047206A51
:10036000401C20626D1EF6D570BD70B50C4605466A
:10037000012A05D02878800600D5EA69002302E02A
:10038000012305E05B1C934202D2E05C0028F9D116
:10039000A869E618C01AA861286A18442862284685
:1003A000FFF7BCFF04E0D5E9012114F8010B9047E9
:1003B000B442F8D32846FFF7C7FF70BD2DE9F041DE
:1003C0000646002410687529314616A510D000F0A5
:1003D000D6F9002802DA404213A507E031688A07FF
:1003E00001D512A502E0490704D511A5012401E0B9
:1003F00000F0CEF900210A2206F1240709E0B0FB43
:10040000F2FCB0FBF2F302FB1C00303078541846CB
:10041000491C0028F3D123462A463046BDE8F04166
:1004200000F0BFB9000000002D0000002B0000000C
:1004300020000000F0B40D460188090502D5214CCA
:100440007C4402E01F4C7C440E34002100F1240661
:1004500008E002F00F071209E75D42EA03721B0988
:100460007754491C52EA0307F3D10278002312079C
:1004700004D5702D06D009B1022311342246F0BCF8
:1004800000F08FB901231034F8E770B504460D462B
:100490002146106800F07CF9024629462046BDE856
:1004A00070400023C6E7D21D22F00703D3E90023E2
:1004B000C0E70368126843F0200303600823C361A8
:1004C0000023B7E7AA5100002DE9F05F89460446F2
:1004D0004FF0000ADFF874B1FB44C0F820A02046BA
:1004E000E1688847002874D0252806D0D4E9012186
:1004F0009047206A401C2062F1E700265F462046B4
:10050000E16888472028054607DB312D05D2781998
:1005100010F8200C08B10643F1E7B00701D526F02A
:100520000406C4F81CA00027C4F818A02A2D09D07E
:10053000284604F08BFC38B304EB8708303DC8F83C
:10054000185019E059F8041B204604EB870291610A
:10055000E1688847012F054618D1E069002820DAB4
:1005600026F020061DE0D8F8180000EB800005EB0F
:1005700040003038C8F818002046E1688847054632
:1005800004F064FC0028EED1012F0AD02E2D08D1F2
:100590002046E16888477F1C0546022F46F020066A
:1005A000C4DBA069002803DA404246F00106A061DE
:1005B000F00701D026F010066C2D0BD0682D09D065
:1005C0004C2D39D06A2D35D0742D35D07A2D33D0BD
:1005D00016E038E0E1682F4620468847B8420546D5
:1005E00009D16C2F26D04FF48060E1680643204685
:1005F0008847054604E06C2F1AD04FF480700643FC
:100600000DB3A5F14100192802D8203546F4006643
:100610004A462946204626604E46FFF7B7FD80B180
:1006200001280BD0F61D26F0070000F1080956E757
:100630004020E4E78020D8E70020D6E706F104094F
:100640004DE7284652E7206ABDE8F09F3A51000086
:1006500040EA010310B59B070FD1042A0DD310C83F
:1006600008C9121F9C42F8D020BA19BA884201D991
:10067000012010BD4FF0FF3010BD1AB1D30703D0D9
:10068000521C07E0002010BD10F8013B11F8014B8F
:100690001B1B07D110F8013B11F8014B1B1B01D1AB
:1006A000921EF1D1184610BD10B5431C02E010F89F
:1006B000011B71B18107FAD14FF0013202C88C1AC7
:1006C0008C4314EAC211F9D0C01A0A0603D0C01E26
:1006D00010BDC01A10BD0A0401D0801E10BD090251
:1006E000FCD0401E10BD4FF000020429C0F0128063
:1006F00010F0030C00F01B80CCF1040CBCF1020FD5
:1007000018BF00F8012BA8BF20F8022BA1EB0C01A9
:1007100000F00DB85FEAC17C24BF00F8012B00F89F
:10072000012B48BF00F8012B70474FF0000200B5C5
:10073000134694469646203922BFA0E80C50A0E804
:100740000C50B1F12001BFF4F7AF090728BFA0E8B2
:100750000C5048BF0CC05DF804EB890028BF40F87E
:10076000042B08BF704748BF20F8022B11F0804FC0
:1007700018BF00F8012B7047704770477047096831
:100780004A0501D540B27047C905FCD500B2704793
:1007900009684A0501D5C0B27047C905FCD580B2C9
:1007A00070472DE9F0470D4699469246044600F100
:1007B00024080168880604D5E06921F01001216051
:1007C00000E00120A84201DD471B00E00027A169ED
:1007D0007A1902EB0900081AA0612078C00602D439
:1007E0002046FFF79BFD002608E0D4E901211AF816
:1007F00006009047206A401C761C20624E45F4DBC0
:100800002078C0060AD52046FFF788FD06E0D4E927
:10081000012130209047206A401C2062381EA7F139
:100820000107F4DC07E0D4E9012118F8050090473E
:10083000206A401C2062281EA5F10105F3DC204639
:10084000FFF782FD2078000602D50220BDE8F08780
:100850000120FBE711680268006A530501D50870A2
:100860000AE0D30501D5088006E0130603D5C217B8
:10087000C1E9000200E00860012070472DE9FF4F48
:100880000C461E464FF0FF378BB0D2E90001DDF871
:1008900060800A908A46C1F30A5505B93D46002199
:1008A00008464FF00000BAF1000F00F4400005DAEE
:1008B00000EB80004FF4400101EA50004FEA9059EC
:1008C000B9F1010F00DDB9460A9850EA4A000ED08E
:1008D00044F61050A5F2FF3545432F14B8F1000F30
:1008E0001ED07542291E1EDDC9F100021CE0B8F1C0
:1008F000010F4FF0000001D0302103E0F24305E08A
:100900002154401CB042FBDB304600220021215420
:100910000B99C1F80880C1E900200FB0BDE8F08F45
:10092000BD1B6D1CDEE74A4600DA694206A800F0EE
:10093000DBFC06AB93E8070003AB83E807005046F7
:100940000A9903F0A7FE8DE80700A0F500501F38B4
:1009500000900398002D0ADD42F21F014A46084428
:10096000002303A90390684604F010F909E0A0F5FC
:1009700000504A461F38002303A90390684604F03C
:100980001AF98DE807000004000C03D04FF0FF3087
:10099000410800E01046B8F1000F03D00022009299
:1009A00015461EE0751E05D400F084FA30326255FB
:1009B0006D1EF9D5B3460122084302D000227F1CE8
:1009C00004E02078302801D100227F1E002A0997F8
:1009D00084D01DE0112D07DA00F06CFA3032625538
:1009E0006D1C50EA0102F5D1084302D00098C8B14D
:1009F0000EE00021681E05E0235C625C6354225413
:100A0000401E491C8142F7DBAB46A81B401E0990E3
:100A1000002004F80B000B98099AC0F80880C0E980
:100A2000002B7AE711264FF0000857E72DE9F04F29
:100A300088460446D21D22F0070191B0D1E9000199
:100A4000CDE90A0104F0EEF902460B98C00F01D07F
:100A50002D2007E02068810701D52B2002E020210E
:100A600001EAC000032A099001D0072A05DB0346EA
:100A70004146204600F0E2FB0BE12078800601D5DC
:100A8000E06900E00620B8F1650F814606D0B8F1B4
:100A9000660F18D0B8F1670F70D131E00020B9F1BE
:100AA000110F009001DB112301E009F101030AAAF3
:100AB00001A90CA8FFF7E2FEDDE90C70002609F1A0
:100AC0000105834647E001204B4600904FF0004768
:100AD0000AAA01A90CA8FFF7D1FEDDE90DB00C9917
:100AE0005D46002610B909F101000D18B9EB0500AB
:100AF00003D4C0F1FF3609F10105A5EB09002BE095
:100B0000B9F1010F01DA4FF001090020B9F1110F1D
:100B10000090484601DD112300E003460AAA01A91E
:100B20000CA8FFF7ABFEDDE90C704D4600268346AE
:100B3000207800070AD4AB4500DA5D4601A8012DF4
:100B400004DD411911F8011C302907D04F4502DAA4
:100B500017F1040F04DA012082460FE06D1EEEE764
:100B6000002F02DCED1B3E4403E0781CA84200DDB0
:100B70007D1CB81B00F1010A4FF0004720780007E8
:100B800003D4AA4501DB4FF0FF3A0021B7F1004F33
:100B90000DF143088DF8431024D002202B23002FA1
:100BA00001DA7F422D230A21021EA0F1010000DCA0
:100BB0005FB197FBF1FC97FBF1F201FB1C7C174640
:100BC0000CF1300C08F801CDEEE7A8F1010003703C
:100BD0002188090501D5452100E06521A0F1010822
:100BE00000F8011C09980FA9A1EB0807FF1D00B12F
:100BF0000120411901EBEA70A1693844081A401E2E
:100C0000A0612078C00602D42046FFF787FB099830
:100C100028B1D4E901219047206A401C2062207845
:100C2000C00622D52046FFF779FB1EE0002E04DB2C
:100C3000B34502DD01A8805D00E03020D4E9012148
:100C40009047206A401C2062761CAAF101005FEAEE
:100C5000000A0AD100F02AF9C0680168405CD4E9B2
:100C600001219047206A401C2062281EA5F1010541
:100C7000DCDC07E0D4E9012118F8010B9047206A79
:100C8000401C2062381EA7F10107F3DC2046FFF765
:100C90005BFB032011B041E601694A1C0261087840
:100CA000704700B58FB0CDE90131002105910549AC
:100CB0007944CDE9031011466846FFF705FC0FB0F3
:100CC00000BD0000E5FFFFFFD1E900239A4202D2F8
:100CD000531C0B601070704710B5436913B1AFF32C
:100CE000008001E0FFF741FB012010BD127800F108
:100CF00024010A7000224A700122EDE711684FF0CA
:100D0000FF32E9E72DE9FF5F15468A460446DFF822
:100D1000AC80F8440027D8E900103E46CDE9001029
:100D200010E03AF816106A4602A800F04FFB411C8A
:100D300007D02178890603D5E269391891420DD888
:100D40000744761C2078800602D5E069B84205DDAC
:100D5000AE42E6DB3AF816000028E2D1A069C01BDB
:100D6000A0612046FFF7DAFAD8E90010CDE90010BB
:100D7000002017E03AF818106A4602A800F026FB97
:100D8000B0F1FF3F81460BD000250DF1080B05E0C7
:100D9000D4E901211BF8050090476D1C4D45F7D3A0
:100DA00008F10100B0428046E4DB206A384420624A
:100DB0002046FFF7C9FABDE8FF9F00001249000076
:100DC0002DE9F0418046D21D22F007020025D2E92C
:100DD0000002F52915A614D0011E72F1000106DAF1
:100DE0000023D0EB030063EB020211A608E0D8F861
:100DF00000108B0701D50FA602E0490701D50EA60A
:100E000001251146002408F1240704E000F052F8FF
:100E100030323A55641C50EA0102F7D12B46324673
:100E200021464046BDE8F041FFF7BBBC0000000092
:100E30002D0000002B0000002000000030B4002135
:100E400000F1240408E002F00705D208303542EA38
:100E50004372DB086554491C52EA0305F3D1046868
:100E6000002310A2250708D504F020040C4304D069
:100E7000C46901230CA2641EC46130BCFFF791BC9D
:100E800010B5044621461068FFF782FC0246204652
:100E9000BDE810400023D1E7D21D22F00701D1E9BF
:100EA0000023CBE70000000030000000004870473E
:100EB0003800002030B5B0F10A0271F100034FEAAA
:100EC000900E4EEA817EB0EB0E0061EB91014FEA8D
:100ED000101E4EEA017E10EB0E0041EB11114FEA9D
:100EE000102E4EEA016E10EB0E0041EB11214FEA7D
:100EF000104E4EEA014E10EB0E0041EB114140182E
:100F000041F100014FEAD00040EA41704FEAD101BF
:100F10004FEA810444EA907410EB800544EB01042D
:100F20006D1944EB0404521BA3414FF0000348BF6A
:100F30000A3200D530BD401C41F1000130BD000037
:100F40002DE9F04F04460D46D21D22F0070089B06E
:100F5000D0E900974846394603F064FF0246F80F8F
:100F600001D02D2307E02068810701D52B2302E063
:100F7000202101EAC0038DF820300BB1012000E0F0
:100F80000020032A824601D0072A04DB2946204696
:100F900000F054F93FE12078800601D40D2500E0EF
:100FA000E569C7F30A560D2D49DA00214FEA175BB0
:100FB00008464FF00000002F00F4400007DA00EB75
:100FC00080004FF4400100EBD07001EA6000811511
:100FD000012901DD4FF0FF3100224FEA850CBCF101
:100FE000180F06D31346ACF118004FF08052C240E0
:100FF00003E04FF4801323FA0CF30CF10C0CBCF15A
:10100000200F04D3ACF1200C09FA0CF001E007FA30
:101010000CF000294FF0004801DD18B90FE00ED1A7
:1010200040450CD319EB02095F4121B9404502D17B
:101030009F4329EA0209BBEB175F00D0761C20888A
:10104000000502D57B48784402E07A487844193894
:1010500008AA302302F80A30037C0AF10101002EAD
:101060000AF1020A53546A4602DC4FF0300101E0F3
:101070004FF031014FF001088DF8001002D0A6F2B8
:10108000FF3603E059EA470100D06B4E002D02DC29
:101090002178090704D54FF002082E218DF80110A0
:1010A000C44600210BE0C7F303433F01C35C491C66
:1010B0006D1E02F80830052908F1010801DA002D3B
:1010C000F1DC00210CE000EB1973491C1B786D1E4C
:1010D000082902F808304FEA091908F1010801DA75
:1010E000002DF0DC21688B0602D516E0A8F101087E
:1010F000E04505DD02EB080313F8013C302BF5D089
:10110000B8F1000F09DD02EB080313F8013C2E2BA8
:1011100003D1090701D4A8F10108002D05DD3E2106
:1011200002F808106D1E08F10108407C002E02F83C
:10113000080008F1010804DA2D20764202F80800C0
:1011400002E02B2002F808000A214FF47A70864250
:1011500008F101080BDB96FBF0F3303302F808309E
:1011600096FBF0F308F1010800FB136601E0642E22
:101170000CDB642096FBF0F3303302F8083096FB6A
:10118000F0F308F1010800FB136601E00A2E06DB0C
:1011900096FBF1F0303002F8080008F1010896FBE8
:1011A000F1F001FB1060303002F80800A16908F18D
:1011B000010808EB050202EB0A00081AA06120787A
:1011C000C00602D42046FFF7A9F8216A08AE01EB59
:1011D0000A00206204E0D4E9012116F8010B9047CF
:1011E000BAF1010AF7D22078C00602D52046FFF7EF
:1011F00095F86E4609E016F8010B3E280FD0D4E9A9
:1012000001219047206A401C2062B8F10108F2D207
:101210002046FFF799F809B00320BDE8F08F206A57
:101220002844206203E0D4E90121302090476D1E5C
:10123000EBD3F8E7F945000002FCFFFF2DE9F04190
:101240001F46044603260168072A01F4006004DBF8
:1012500008B116A505E016A503E008B115A500E044
:1012600015A521F010002060A069C01EA0610FB17B
:10127000401EA0612046FFF751F84FB1D4E901218B
:1012800038469047206A401C2062C01C206206E05D
:10129000206AFAE7D4E9012115F8010B9047761E80
:1012A000F8D22046FFF750F8BDE8F0814E414E00DD
:1012B0006E616E00494E4600696E660010B5436966
:1012C00013B1AFF3008001E0FFF71CFD012010BD5A
:1012D000128800F1240182840022C2840122EDE7F9
:1012E00011684FF0FF32E9E72DE9F04781461646D5
:1012F0008AB0354878440DC88DE80D0032487844EE
:10130000801C03AC0DC884E80D0041F69B300844F6
:10131000372190FBF1F290FBF1F5A5F1800501FB7F
:1013200012041B3C02D56442012000E00020DFF8DB
:1013300098A080460027FA44AAF1BE0A0EE0E00712
:101340000AD03246684607EB470101230AEB8101C8
:1013500003F031FC8DE8070064107F1C002CEED1F7
:10136000194F7F44AE3F19E0E80715D007EB041092
:101370000DF1180A90E80E008AE80E00C068F042ED
:1013800001D1981908903246012306A903A803F059
:1013900012FC03AB83E807006D10641C002DE3D141
:1013A0004FF0010332466946B8F1000F03A802D09E
:1013B00003F0ECFB01E003F0FEFBC9E90001C9F812
:1013C00008200AB0BDE8F087DC4300002DE9F041B9
:1013D00016460C46054600F047F8036893F80101ED
:1013E000012807D0FF2C12D8185D80B101202C7085
:1013F000BDE8F081D3F807013246214603F2071316
:10140000C7182846BC46BDE8F041002360474FF0AE
:10141000FF30EDE700487047180000207546FFF7E1
:10142000F9FFAE4605006946534620F007008546A1
:1014300018B020B5FEF722FFBDE820404FF00006AF
:101440004FF000074FF000084FF0000BAC46ACE83F
:10145000C009ACE8C009ACE8C009ACE8C00921F09B
:1014600007018D467047000010B5FFF71FFD001DF6
:1014700010BD00BF153A000010B50446AFF3008060
:101480002046BDE81040FEF7E4BE00004FF0013CEE
:1014900050F8042B51F8043B9A4221D1A2EB0C03E3
:1014A000934313EACC1317D150F8042B51F8043BA3
:1014B0009A4215D1A2EB0C03934313EACC130BD140
:1014C00050F8042B51F8043B9A4209D1A2EB0C03CB
:1014D000934313EACC13DBD04FF00000704700BFFA
:1014E000D01A01BAB1FA81F101F0180122FA01F023
:1014F000CB40DBB2C0B2C01AC1F120012CFA01F31B
:10150000D11A914311EAC311E6D17047014918205D
:10151000ABBEFEE72600020070470000B0B582B007
:1015200004460020019021688A68D2074BD1886860
:1015300040F00100886040F20800C2F2000000683C
:101540004DF68361C4F21B31A0FB0101880C0190B0
:101550000198A0B1019801380190019878B10198E3
:1015600001380190019850B101980138019001981B
:1015700028B101980138019001980028EAD101F0C2
:1015800091F921688968C9071CD1054603E000BFAD
:101590008068C00716D101F085F9411B2068032936
:1015A000F6D38168C907F3D1A06A40F01000A062A9
:1015B000E06A40F00100E062002084F8240001208D
:1015C00002B0B0BD002002B0B0BD0000B0B540F226
:1015D0009800C2F20000C468806803F047FE054628
:1015E000204603F043FE0146284603F02DFD002C63
:1015F00008BF2046B0BD000040F29800C2F20000D3
:101600004088704740F20C00C2F20000008870472A
:1016100040F2A010C2F200000021018580F82A10DB
:1016200040F20C00C2F200004FF6FF72028040F25E
:101630009800C2F20000C0F80210C0E90211017067
:1016400070470000F0B581B040F2A016C2F200066B
:1016500074690021C4F24011204603F0CDFC88B328
:1016600049F69A11C4F20D21204603F0C5FCC8B317
:1016700049F69A11C4F25D21204603F0BDFC002812
:101680004AD000250320C4F2163586F82A002046E9
:10169000294603F0B1FC49F69A1100281CBF00242A
:1016A000C4F21634CCF25D21204603F035FC294605
:1016B00003F058FE43F23331C4F2BD2103F0C4FC01
:1016C000294640E00020002186F82A00C4F2482183
:1016D000204603F047FE0021C4F2401103F0B4FCA1
:1016E000012733E000210127CCF24011204686F883
:1016F0002A7003F011FC0024C4F24824214603F0B0
:1017000031FE43F23431C4F2BB1103F09DFC21469B
:1017100003F002FC1AE000BF022049F69A1186F895
:101720002A00CCF20D21204603F0F6FB0021C4F282
:10173000482103F017FE0021C4F2A01103F084FC3D
:101740000021C4F2C82103F0E7FB002703F072FD7B
:101750003569002104463085C4F29641284603F0DD
:1017600060FC98B10021C4F27A41284603F059FC8C
:10177000002818BF012087F0010108430DD1022085
:10178000772C86F82A0008D8782405E00320C82C96
:1017900086F82A0001D2C824348540F20C00C2F237
:1017A000000001888C4238BF048040F29800C2F2E9
:1017B000000041888C4288BF4480D0E902120B1996
:1017C00081880132C0E9023249B1631D00274A1DF8
:1017D0008B4238BF0127A24238BF0227077084809E
:1017E00001B0F0BD0138C0B202288EBF02A004A132
:1017F00051F82000704700BF4E4F4E4500000000DA
:1018000032570008435700083A57000840F2780062
:10181000C2F200008068704740F27800C2F2000017
:101820004078704740F27800C2F20000807870473C
:1018300040F27800C2F20000002101608180C0E91E
:101840000211C0E90411C0E9061140F2A010C2F271
:10185000000080F82B10704740F27800C2F20000C0
:10186000007870472DE9F04F81B040F2A01940F2A6
:101870007807C2F20009C2F20007B9F82880387868
:1018800097F801B0B8F1F90F009001D903250AE0EB
:10189000B8F1950F02D9022505E000BF0025B8F187
:1018A000630F88BF0125D9F810400021C4F2C84158
:1018B000204603F0A8FB032600284FF0030012D1B6
:1018C0000021C4F29641204603F09DFB50B900214F
:1018D000C4F27A41204603F096FB002818BF01208D
:1018E00001E000BF02208542824688BFAA46002848
:1018F0000CBF0126012044F20001002D08BF460064
:10190000C4F21C612046BE7003F076FB002818BFAD
:101910004FF0030AB888B8F57A7F88BF4FF0030A02
:1019200040B13230BAF1020F514698BF0221404512
:1019300038BF8A46FD690021284603F05DFB064654
:101940002046294603F0DAFD0021C4F2963103F067
:1019500053FBBAF1020F554698BF0225002808BF75
:101960005546002E08BF5546BBF1010F1ED0BBF1F6
:10197000020F0DD0BBF1030F24D1B8F1DB0F4FF0F4
:10198000030621D848F20001C4F2BB4109E000BFC0
:10199000B8F1810F4FF0020616D848F20001C4F2E8
:1019A0008941204603F03DFB60B90DE0B8F1590FC5
:1019B0004FF0010608D80021C4F26141204603F02F
:1019C00022FB08B92E467D70F878864288BFFE70EB
:1019D000B34507D1002E18BF01263E700DD100205F
:1019E00018E000BF701E032812D20EA151F820008B
:1019F00001680131016001203870F86800990130F8
:101A0000F86011B9B8680130B860012002E000BF89
:101A10000020387089F82B00A7F80480FC6101B021
:101A2000BDE8F08F880000208C000020900000208E
:101A3000FEE7000010B540F2DC04C2F20004002111
:101A4000204620F8031B4021FEF74DFE40F23840AF
:101A5000A11CC2F200000122BDE8104001F03ABE14
:101A60002DE9F041A4B040F2DC07C2F2000778781B
:101A7000012840F0B680FC1C72A120460522FEF72A
:101A8000E7FD98B371A120460722FEF7E1FDB8B348
:101A9000D7F8030047F26111C0F26901884237D0DC
:101AA0006CA120460622FEF7D3FD00284AD06BA188
:101AB00020460822FEF7CCFD002867D069A1204609
:101AC0000922FEF7C5FD002800F08E8068A120469F
:101AD0000622FEF7BDFD002800F0A28040F238404B
:101AE000C2F2000064A1112275E000BF40F238404C
:101AF00045F6DC11C2F20000C0F6000138226AE0AF
:101B000040F23840C2F2000074A1102263E000BF2E
:101B100040F2A010C2F20000B0F82880FFF772FD7A
:101B20000546FFF769FD0646FFF750FD03F0C8F9CB
:101B300045F6B9120C46C0F60002CDE900560290F7
:101B400039E000BFFFF788FE63A462A1002808BF48
:101B50000C46FFF761FE0546FFF758FE45F61522D5
:101B60000DF110080646C0F60002404680212346CB
:101B7000CDE90056FEF7B2FB4046FEF795FD82B276
:101B800040F23840C2F20000414624E002F056F82C
:101B9000804601F095FE03F093F905460E4601F0EC
:101BA000EBFE03F08DF945F691120C46CDE9005697
:101BB0000290C0F6000204AD2846802143460394FB
:101BC000FEF78CFB2846FEF76FFD82B240F23840EC
:101BD000C2F2000029464FF0FF3301F0A5FD0020BE
:101BE000388024B0BDE8F08140F2A014C2F20004B5
:101BF000606A03F065F9A38E04ACCDE900012CA264
:101C0000204680210293FEF769FB2046FEF74CFD3B
:101C100082B240F23840C2F200002146DBE700BF4A
:101C200000F06EF81AA419A1002808BF0C4600F0B5
:101C300061F8064604AD17A2284680212346009687
:101C4000BEE700BF68656C700000000073746174CB
:101C500075730000616C61726D00000068697374D7
:101C60006F727900666F72656361737400000000C3
:101C70006661756C74000000556E6B6E6F776E2038
:101C8000636F6D6D616E640D0A0000004E4F0000C1
:101C9000594553004661756C743D257320466C614F
:101CA00067733D30782530386C580D0A000000000D
:101CB00050726564696374696F6E3D252E316620CC
:101CC000466F7265636173744151493D25750D0A14
:101CD000000000004F4646004F4E000053797374D9
:101CE000656D2052756E6E696E670D0A000000000A
:101CF0007047000040F29C10C2F20000006870477C
:101D000040F29C10C2F200000068002818BF0120B9
:101D10007047000040F29C10C2F2000000210160F8
:101D200040F2A010C2F20000816370472DE9F04F2D
:101D300081B040F2A019C2F20009D9F80CB040F20B
:101D40009C180021C2F200080027C4F27A315846DC
:101D5000C8F8007003F05EF9002804BF0127C8F836
:101D60000070D9F810500021284603F05AF944F2C7
:101D700000010646C4F29C51284603F03DF9064393
:101D800058464FF000011CBF0126023703F049F905
:101D90008246284600213C1D03F043F9002858469E
:101DA0004FF0000118BF274603F03BF9002818BF89
:101DB0002746BAF1000F0CBF002EC8F80070C9F812
:101DC000387001B0BDE8F08F40F2A800C2F2000008
:101DD00000210170A0F80110C170C0E90111C0E933
:101DE0000311C0E90511C0E90711C0E909117047E5
:101DF0002DE9F04F83B040F2A80A40F2A018C2F2D9
:101E0000000AC2F200089AF80000D8F80C5068B333
:101E1000DAF81010284603F0F6F8002808BFCAF8D0
:101E20001050DAF81410284603F0F4F8002808BF20
:101E3000CAF81450DAF804702846394603F05EFBFD
:101E400020F000460021C4F21631304603F0E2F8DB
:101E5000B0B9DAF80C000130CAF80C0001208AF899
:101E60000300C8F8147003B0BDE8F08F0120CAF871
:101E70000450CAE904558AF800002F4626E000BF46
:101E8000002000218AF80300C4F2F011304603F06C
:101E9000B3F84CF6CD46C3F64C66002818BF4FF099
:101EA0007C564FF07E50314603F028FB044628460E
:101EB000314603F057FA06462046394603F052FAF7
:101EC000314603F029F80746CAF804009AF80110D1
:101ED0009AF802000AEB810201319561CAB2042A24
:101EE00088BF002104288AF801109CBF01308AF8BD
:101EF0000200C5B2042D00F0030603D20021002029
:101F00005EBB39E005F0FC00AAF11009C0F1000B3E
:101F10004FF000080020CDE9016700BF09F1280754
:101F2000C2CFD9F8344002F0F7FF314602F0F4FF97
:101F3000394602F0F1FF214602F0EEFFA8F1040855
:101F4000C34509F11009E9D1C8F1000140F2A01818
:101F5000DDE90167C2F2000876B10AEB8104A169EC
:101F600002F0DAFF012E07D0E16902F0D5FF022E60
:101F700002D0216A02F0D0FF0446284603F076F929
:101F80000146204603F060F8CAF80800C8F814704B
:101F900003B0BDE8F08F000070B581B00022009260
:101FA00090F82420012A03D10221084601B070BD17
:101FB0004A680123062A02EB820E80F8243007D8F3
:101FC000D0F800C06FF004030CF134060CE000BF41
:101FD000D0F800C00C2A87BF0CF12C066FF040032C
:101FE0000CF130066FF022030EEB03021F2334685E
:101FF00003FA02F50B6824EA050503FA02F22A4304
:102000003260092B03EB43021AD9DCF80C601E3A4C
:10201000072589689540AE43914023F00102314382
:10202000102ACCF80C1015D142F20041C4F2010183
:102030008C4517D0816A41F02001816201210AE0BC
:10204000DCF81030072689689640B3439140194365
:10205000CCF810100021002280F82420084601B09E
:1020600070BD00BF89680902F4D4DCF80810102B99
:1020700041F40001CCF80810ECD140F20801C2F2A2
:10208000000109684DF68362C4F21B32A1FB021203
:10209000910C01EB81014900009100990029D9D0F0
:1020A00000990139009100990029D3D00099013994
:1020B000009100990029CDD0009901390091009933
:1020C0000029C7D0009901390091009900294FF0EB
:1020D0000001E5D1BFE700000068C06C7047000058
:1020E000002804BF01207047B0B50446806A28B1BB
:1020F00021688868C0070CD115E000BF0020E062AD
:1021000084F82400204600F097F821688868C0070A
:1021100009D0886820F00100886000F0C3FB2168C6
:102120008A68D20726D1A06AC0063AD4A06A41F2D2
:10213000021290430230A062E069D4E9013240EA21
:10214000030C531EB3FA83F35D091346B2F5807F87
:1021500018BF2B02207D257B01284CEA45002CD19D
:1021600035B3A56A45F02005A562E56A45F001058D
:10217000E56222E0054602E08868C007D3D000F09F
:1021800091FB401B21680328F6D38868C007F3D071
:10219000A06A40F01000A062E06A40F00100E06236
:1021A000A06AA06A40F01000A0620120B0BD00BF8C
:1021B000A56903EB4533A3F5C0534D68B2F5807FA5
:1021C00025F4694543EA05034B608B684FF2FD75C2
:1021D000CFF6E17503EA050343EA00038B6001D003
:1021E000012A07D122690023CFF6F07303EB0252D4
:1021F00001E000BF0022CB6A23F470031A43CA62D5
:10220000896840F6FE62CFF61F721140814207D105
:102210000020E062A16A012262F30101A162B0BD67
:10222000A06A40F0100020F00200A062E06A40F0D6
:102230000100E0620120B0BD80B586B0014640F6E5
:102240000000C4F20100096800F5E05291424FF02D
:102250000001CDE90411CDE9021101D006B080BD25
:1022600041F21801C4F202010A6842F400720A60E5
:102270000A6802F400720192019A0A6842F00402AC
:102280000A60096801F0040101910199012102919C
:102290000321039102A900F0F7F906B080BD000008
:1022A0002DE9F04182B000270D460446019700F069
:1022B000F9FA21688A68D20544D406464868C00500
:1022C00003D4C86A10F4700F46D040F20800C2F27E
:1022D0000000076842F292480220C1F2492800F04B
:1022E0008BFB216844F624130A69B7FBF0F0C2F2B5
:1022F00092431A4206D1CA6844F62413C0F29203EC
:102300001A425BD00A6912EA080F07D1CA6842F282
:102310009243C0F249031A4200F0C0800A6949F2B0
:102320004923C0F224031A424FF0FC0254D1CF6873
:102330001F4208BF5422019B02FB00F7BB4250D34F
:10234000C3E000BFA06A40F02000A06284F82470BF
:10235000012002B0BDE8F0810868800700F1B58077
:10236000681C00F0A880FDB90868800770D508686F
:10237000800700F1AA800868800769D5086880078F
:1023800000F1A3800868800762D50868800700F123
:102390009C80086880075BD508688007E4D594E0D6
:1023A0000868800700F1918000F07CFA801B2168AA
:1023B000A842F5D908688007F2D449E00A6912EA10
:1023C000080F4FF0290207D1CB6842F29247C0F2C2
:1023D00049073B4208BF1422019B02FB00F7BB42A6
:1023E00073D2681C52D05DBB0198B84230D30198BB
:1023F000013001900198B84267D20198B84227D3C2
:102400000198013001900198B8425ED20198B8421B
:102410001ED30198013001900198B84255D201981D
:10242000B84215D30198013001900198B842DBD32E
:102430004BE000BF0198013001900198B84235D2BD
:1024400000F030FA801BA842F4D90198B842F1D2CA
:10245000A06A40F00400A062002084F82400032059
:1024600002B0BDE8F08100BF0198013001900198F1
:10247000B8422AD20198013001900198B84224D282
:102480000198013001900198B8421ED201980130A4
:1024900001900198B842E7D317E000BF5422019B96
:1024A00002FB00F7BB429CD30FE000BF21680CE0A9
:1024B0000868800709D40868800706D40868800780
:1024C0005CBF08685FEA8070F2D56FF012000860A8
:1024D000A06A40F40070A062886800F46020B0F543
:1024E000602F01D1207B18B1002002B0BDE8F0813F
:1024F000A06A20F48070A062A06AC004F4D4A06A2C
:1025000040F00100A062002002B0BDE8F0810000B0
:1025100010B5044690F82400012804BF022010BD25
:10252000012084F824002046FEF7F8FF20B10020A7
:1025300084F82400012010BD42F2044C2068A16AF6
:10254000C4F2010C40F2013291430CF57F7201F5A7
:1025500080719042A16229D0A16A21F48011A16208
:102560004168490504D5A16A012363F30D31A162D5
:10257000A16A0023C9044FF0000144BFE16A21F0C1
:102580000601E1626FF0020184F824300160816885
:1025900001F46021B1F5602F1BD1904214D0816805
:1025A00041F4A0018160002010BD00BFDCF80010E4
:1025B00011F4702FD0D0A16A41F48011A162DCF82F
:1025C00000104905CFD4D3E7DCF8001011F4702FC8
:1025D000E5D0816841F480118160002010BD0000C9
:1025E000B0B5044690F82400012804BF0220B0BD15
:1025F0000121206884F824108168C90709D0816806
:1026000021F00101816000F04DF921688968C90756
:102610000ED1214651F8280F41F2011220EA0202A0
:10262000002042F001020A60002184F82410B0BDAD
:10263000054602E08068C007EBD000F033F9411B8B
:1026400020680329F6D38168C907F3D0A06A214620
:1026500040F01000A06251F82C2F0120E1E70000AB
:10266000B0B5044600F01EF9054640F20000C2F283
:1026700000000078611C18BF044400BF00F012F98C
:10268000401BA042FAD3B0BD2DE9F04F82B00E68D6
:10269000002E00F0FD8041F20042C4F2010204234A
:1026A00040F2004E904208BF03234FF6FF7CC4F275
:1026B000010E009300240123C1F2100C4FF0000A18
:1026C0004FF000094BE000BF41F20002C4F20102EA
:1026D000009F904208BF022704F00C030F229A408B
:1026E0002BEA020207FA03F34FEA9A051A4346F867
:1026F00025204E6840F20C45F202DEF8082054BF57
:1027000022EA080242EA0802C4F20105CEF80820D3
:102710002A68B30254BF22EA080242EA08022A6089
:10272000B303DEF8042054BF22EA080242EA08029A
:10273000F303CEF80420DEF800204FF0010354BF6D
:1027400022EA080242EA0802CEF800200E680AF1E6
:10275000010A36FA0AF204F1040400F0998003FA3F
:102760000AFB16EA0B08F1D04E68664512DC122E01
:1027700056D8DFE806F0350B4D495555555555559A
:102780005555555555555545510000BFD1F80C903C
:1027900046E000BF4FF6FF72C1F2210296420FDC05
:1027A0000022C1F2110296421AD00022C1F2120296
:1027B000964215D00022C1F22102964210D02FE09D
:1027C0000022C1F2220296420AD00022C1F2310256
:1027D000964205D00022C1F23202964220D100BFBB
:1027E0008A684AB1012A14BFC0F814B0C0F810B00A
:1027F0004FF0080914E000BF4FF0040910E000BFDB
:10280000CA6802F104090BE04FF0000908E000BFBC
:10281000CA6802F1080903E0CA6802F10C0900BFA6
:1028200002462646B8F5807F24BF0432203E176852
:102830000F25B54027EA050509FA06F63543156068
:10284000CA79D2067FF582AF41F21803C4F20203BF
:102850001A68AEF57E7642F001021A601A6802F03C
:1028600001020192019A2AF0030256F802B040F6E2
:102870000002C4F20102904208D040F60042C4F2C5
:10288000010290427FF420AF012725E7002723E7CC
:1028900002B0BDE8F08F0000002A08BF0904016102
:1028A0007047000040F28440C2F2000000687047A8
:1028B00040F2000040F28441C2F20000C2F2000186
:1028C00000780A68104408607047000080B542F242
:1028D0000000C4F20200016841F010010160032011
:1028E00000F07AF80F2000F005F800F027F800203B
:1028F00080BD000070B540F20006C2F2000640F252
:1029000008013278C2F200014FF47A730968B3FB10
:10291000F2F20446B1FBF2F1084600F071FC0F2C14
:102920004FF0010508D838B94FF0FF30214600229A
:10293000002500F025F87460284670BD82B041F291
:102940001800C4F202000168022241F00101016096
:10295000016801F0010101910199416841F0805144
:102960004160406800F08050009000980420C4F25C
:102970000100016862F31A61016002B07047000053
:1029800010B54EF60C5CCEF2000CDCF80030C3F350
:10299000022E8EF00704042C28BF0424BEF103038A
:1029A0004FF0FF3E0EFA04F438BF0023A1439940D4
:1029B0000EFA03F39A43114300F00F0200F1604353
:1029C0000901043A03F564436244002848BF02F158
:1029D0000C03197010BD00004EF60C51CEF2000130
:1029E0000A684FF6FF031A4060F30A2242F0806043
:1029F00040F0FD7008607047012821D002280DD0FA
:102A0000102808D141F20401C4F202010A6851F809
:102A1000040CC00134D40020704700BF80B500F022
:102A2000DBF941F20401C4F2020109680222C1F398
:102A3000813102EB4101B0FBF1F0BDE8804070470D
:102A400041F20400C4F20200C16940F202320A40BD
:102A5000B2F5817F04BF4FF40040704701F440712C
:102A6000B1F5407F18D0B1F5007F1CBF0020704742
:102A7000006A49F64041800701EAE070704700BFF4
:102A8000C2F3834015A3185CD2030DD440F60012A4
:102A9000C0F23D02504313E050F8040C4FF22441C1
:102AA000800301EAE07070470A6810A3C2F3404255
:102AB0009A5C41F20023C0F27A03B3FBF2F2504376
:102AC0000968490248BF70474AF6AB214000CAF680
:102AD000AA21A0FB01014808704700BF02030405BA
:102AE000060708090A0B0C0D0E0F1010010200005A
:102AF0002DE9F04182B00446007841F21C06C0077F
:102B0000C4F202064AD030685FEAC00808D43068D0
:102B100040F080503060306800F0805001900198A3
:102B200047F20007C4F200073868C00512D43868BD
:102B300040F480703860FFF7B5FE05463868C00580
:102B400008D4FFF7AFFE401B6428F7D9032002B07A
:102B5000BDE8F081706810F4407012D0616801F433
:102B6000407188420DD0706840F24042C4F2422267
:102B7000012320F4407113600023C00713607160CB
:102B800026D17068616820F440700843B8F1000FE6
:102B9000706003D4306820F0805030602068810776
:102BA00007D556F8181CA26821F44041114346F895
:102BB000181CC00607D556F8180CE16820F48000F0
:102BC000084346F8180C002002B0BDE8F08100BFB1
:102BD000FFF768FE054641F2883700BF706880073E
:102BE000CFD4FFF75FFE401BB8424FF00300F5D98A
:102BF000EAE70000002804BF012070472DE9F043F8
:102C000081B042F20008C4F202080446D8F800007D
:102C10000D4600F0070081420CD9D8F8000020F0E2
:102C200007002843C8F80000D8F8000000F00700AB
:102C3000A8426CD1206841F204098107C4F202095C
:102C400017D5410705D5D9F8001041F4E061C9F85E
:102C50000010010705D5D9F8001041F46051C9F8FA
:102C60000010D9F80010A26821F0F0011143C9F852
:102C70000010C00742D1D8F8000000F007008542DC
:102C80000CD2D8F8000020F007002843C8F8000054
:102C9000D8F8000000F00700A84238D120684107AA
:102CA00007D5D9F80010E26821F4E0611143C9F8B2
:102CB0000010000708D5D9F80000216920F4605001
:102CC00040EAC100C9F80000D9F8002002F00C0069
:102CD000082841F20020C0F27A004DD145F222735B
:102CE000C2F38341C0F60003595CD20338D440F6E6
:102CF0000010C0F23D0048433EE000BF606859F854
:102D0000041C022808D0012826D1890306D40120FA
:102D100001B0BDE8F08300BF8901F8D5D9F80010F3
:102D200021F003010843C9F80000FFF7BBFD064688
:102D300041F28837D9F80000616800F00C00B0EB70
:102D4000810F98D0FFF7AEFD801BB842F2D9032067
:102D500001B0BDE8F08300BF8907D8D5DEE700BF2A
:102D6000D9F8002045F22073C2F34042C0F60003B8
:102D70009A5C4843B0FBF2F0D9F8001045F20872B3
:102D8000C1F30311C0F60002515C40F2080220FAC0
:102D900001F140F20400C2F200000068C2F2000239
:102DA0001160FFF7A7FD002001B0BDE8F08300002F
:102DB00040F2080041F20401C2F20000C4F2020134
:102DC0000068096845F21872C1F30221C0F60002DA
:102DD000515CC8407047000040F2080041F2040115
:102DE000C2F20000C4F202010068096845F21872DC
:102DF000C1F3C221C0F60002515CC8407047000018
:102E0000002804BF012070472DE9F04182B004463C
:102E1000007841F20006C007C4F202060CD07068C8
:102E200000F00C00042840F081803068800303D556
:102E30006068002800F04681207880071BD5706804
:102E400010F00C0F09D0706800F00C00082840F05A
:102E500087807068C00300F183803068800703D5E5
:102E60002069012840F02E813068616920F0F80067
:102E700040EAC10030602078000713D42078400772
:102E80002CD4E569002D00F01881706800F00C006A
:102E9000082840F0A780012D40F00481012002B0F5
:102EA000BDE8F081A069002800F084800020C4F211
:102EB00042200121C0F88014FFF7F4FC054600BF52
:102EC000706A800700F1B280FFF7ECFC401B02281B
:102ED000F6D9032002B0BDE8F08100BFF0695FEAD7
:102EE000C00808D4F06940F08050F061F06900F04B
:102EF00080500090009847F20007C4F2000738683D
:102F0000C00549D4386840F480703860FFF7CAFCC7
:102F1000054600BF3868C0053ED4FFF7C3FC401B20
:102F20006428F7D9032002B0BDE8F081706800F092
:102F30000C00082803D17068C0033FF576AF6168C4
:102F40003068002900F00C81B1F5A02F00F000815D
:102F5000B1F5803F40F01A8140F480301CE100BFA1
:102F60002069002840F20000C4F2422000F088806E
:102F700001210160FFF796FC054600BF306880071D
:102F80003FF572AFFFF78EFC401B0228F6D90320F5
:102F900002B0BDE8F08100BFE168306A002900F0AE
:102FA0009D80052900F09280012940F0AF8040F01B
:102FB0000100B1E00020C4F242200021C0F88014DA
:102FC000FFF770FC054600BF706A80077FF556AFBB
:102FD000FFF768FC401B0228F6D9032002B0BDE8C9
:102FE000F08100BF0027C4F2422700203866FFF7B7
:102FF00059FC022D05460DD13068800140F1DE807C
:10300000FFF750FC401B02284FF00300F4D902B038
:10301000BDE8F081306880014FD5FFF743FC401BCD
:1030200002284FF00300F5D9F1E700BF40F2080095
:10303000C2F20000006844F6D351C1F26201A0FB65
:103040000101480A019000BF00BF0198411E0028FD
:1030500001913FF413AF00BF0198411E0028019178
:103060003FF40CAF00BF0198411E002801913FF4CE
:1030700005AF00BF0198411E00280191E4D1FDE693
:1030800000210160FFF70EFC054600BF3068800795
:103090007FF5F1AEFFF706FC401B02284FF003005E
:1030A000F4D9B4E77068216A00F480328A4209D109
:1030B000616A00F47010884204D1002002B0BDE8BB
:1030C000F08100BF012002B0BDE8F08140F00400B3
:1030D0003062306A40F001001EE000BF20F00100C5
:1030E0003062306A20F004003062FFF7DBFB0546F7
:1030F00041F28837306A800720D5FFF7D3FB401BA9
:10310000B8424FF00300F5D981E700BF20F001007D
:103110003062306A20F004003062FFF7C3FB0546DE
:1031200041F28837306A800708D4FFF7BBFB401BA9
:10313000B842F7D9032002B0BDE8F081B8F1000F22
:103140003FF59FAEF06920F08050F06199E600BF36
:1031500040F480203060306840F480301CE000BFD4
:1031600020F480303060306820F480203060FFF739
:1031700099FB0546306880037FF55EAEFFF792FB52
:10318000401B64284FF00300F4D940E720F480305E
:103190003060306820F480203060FFF783FB054604
:1031A000306880033FF548AEFFF77CFB401B642886
:1031B000F6D9032002B0BDE8F08100BF206AB0F567
:1031C000803F05D17168A26821F40031114371601C
:1031D0007168626A21F47411114308437060012020
:1031E0003866FFF75FFB0446306880013FF565AF46
:1031F000FFF758FB001B02284FF00300F4D906E745
:10320000411E0020B0EB116F1CBF012070474EF231
:103210001002CEF2000251604EF62351CEF20001B0
:10322000F0230B70072190601160704790F83C20EC
:10323000012A4FF0020236D010B580F83D20026816
:10324000D2F804E0D2F808C00C682EF070032343D3
:1032500040F2FF74C4F20004A24253600ADCB2F1EF
:10326000804F13D040F20043C4F200039A420DD0C5
:1032700011E000BF42F60043C4F201039A4205D0B8
:1032800040F60003C4F200039A4204D149682CF0CE
:103290008003194391600121002280F83D1080F8DD
:1032A0003C20BDE81040104670470000002804BFD5
:1032B0000120704710B590F83D1031B9002180F819
:1032C0003C10044600F070F82046022180F83D10C2
:1032D000016840F2FF740B68C4F2000442F6004C2F
:1032E000A142C4F2010C15DCB1F1804F1AD040F2BA
:1032F0000042C4F20002914214D0A14218DCB1F1A4
:10330000804F1DD040F20042C4F20002914217D01B
:103310001AE000BF614505D040F60002C4F2000289
:103320009142EAD1826823F070031343A142E6DDA3
:10333000614505D040F60002C4F20002914203D17B
:10334000026923F440731343846923F08002D0F8A8
:1033500004E0C368224361450A60CB62C1F828E0FB
:1033600002D14269CCF8302001224A610B69DB07A7
:1033700003D00B6923F001030B6180F8462080F82D
:103380003E2080F83F2080F8402080F8412080F8DF
:10339000422080F8432080F8442080F8452080F8BF
:1033A0003D20002010BD00000068B0F1804F18BF24
:1033B000704781B041F21C00C4F20200016841F084
:1033C00001010160006800F001000090009801B068
:1033D0007047000090F83C20012A4FF002026CD0A8
:1033E00080B580F83D20D0F800C04FF67772DCF849
:1033F000083023EA0202CCF808200B684F2B29DCA6
:103400001F2B45DD202B46D0302B44D0402B40F0E5
:10341000AF80D1F804E0C968DCF82030DCF8202067
:1034200022F00102CCF82020DCF8182022F0F00273
:1034300042EA011123F00A0242EA0E02CCF8181007
:10344000CCF82020DCF8081041F0470121F03001D1
:1034500028E000BF6F2B33DDB3F5005F74D0B3F508
:10346000805F21D0702B40F08380D1E901E3C968EF
:10347000DCF8082043EA0E0322F47F4243EA0121EC
:103480001143CCF80810DCF8081041F0770109E08E
:103490000BB1102B6CD1DCF8081021F0700119432E
:1034A00041F00701CCF808100022012180F83D10FE
:1034B000002180F83C10BDE880401046704700BFF6
:1034C000502B21D0602B53D1D1F804E0C968DCF82F
:1034D0002030DCF8202022F01002CCF82020DCF88C
:1034E000182022F4704242EA013123F0A00242EA9D
:1034F0000E12CCF81810CCF82020DCF8081041F09F
:10350000670121F01001CDE7D1F804E0C968DCF8CB
:103510002030DCF8202022F00102CCF82020DCF85A
:10352000182022F0F00242EA011123F00A0242EAD6
:103530000E02CCF81810CCF82020DCF8081041F06E
:10354000570121F02001ADE7D1E901E3C968DCF8BA
:10355000082043EA0E0322F47F4243EA012111438B
:10356000CCF80810DCF8081041F480419AE700BF5D
:1035700001229AE7002804BF0120704710B50446D5
:1035800090F8410028B9002084F84000204600F05F
:1035900063F8242084F841002068D4E90212C3684B
:1035A00023F40053C360036923F440531A430261B8
:1035B000D4E904231143C268194341F20C639A43CE
:1035C0001143C1604169A26921F44071114343F67E
:1035D0000002C4F201029042416103D0FFF7E8FB10
:1035E00002E000BFFFF7F8FBD4E9002319214843AC
:1035F0009900B0FBF1F048F21F5CC5F2EB1CA0FB98
:103600000C314FF69C734909C0F6FF7301FB0300B0
:10361000322303EB0010A0FB0C03F02000EA531050
:1036200000EB0110C3F3431108449060106920219E
:1036300020F490401061506920F02A005061D06859
:1036400040F40050D0600020606484F8411084F899
:103650004210606310BD000070B586B040F60004F3
:10366000C4F201040068A4F544410026884205968E
:10367000CDE90366029601D006B070BD41F2180094
:10368000C4F20200416802AD41F40031416041687A
:1036900001F4003101910199016841F004010160D8
:1036A0000068294600F0040001900198042002906F
:1036B00002200390032005902046FEF7E5FF082036
:1036C000CDE90206204629460496FEF7DDFF06B046
:1036D00070BD000090F84230202B07D100294FF038
:1036E000010318BF002A05D1184670470223184667
:1036F000704700BF00230363816222218285C28557
:10370000436480F842100169006819B1C16841F44E
:103710008071C160416941F001014161C16841F0BE
:103720002001C160184670472DE9F04381B004467E
:1037300090F84100202809D100294FF0010018BF5E
:10374000002A07D101B0BDE8F08300BF022001B01C
:10375000BDE8F0830020606421201D460E4684F8F9
:1037600041001746FFF79EF8A784E784A1688146C9
:10377000B1F5805F02D1206900285DD03746002076
:10378000E28C2168002A5DD06A1C24D0002D4AD02A
:10379000804600BF0868000608D4FFF783F8A0EB56
:1037A0000900A8427AD82168C868F3E717B117F86A
:1037B000010B04E038F8020B00276FF35F2048602C
:1037C000E08C0138E084E08C0028E3D13AE000BFCF
:1037D0000A68120609D40A68120606D40A68120694
:1037E0005CBF0A685FEA0262F2D51FB117F8012BCD
:1037F00005E000BF30F8022B00276FF35F224A601C
:10380000E28C013AE284E28C002AE4D11AE000BFA3
:1038100030F8022B00276FF35F224A60E28C013AF6
:10382000E284E28C72B10A68120635D5002FEFD01F
:1038300017F8012BF1E700BF00273046E28C216822
:10384000002AA1D1086840061ED42DB3681C14D1EB
:10385000086840062AD40868400627D4086840064D
:1038600024D4086840064FF00000F1D50DE000BFF9
:103870002068C1680068400618D4FFF713F8A0EB71
:103880000900A842F4D909E00020202184F8411061
:1038900001B0BDE8F08300BFFFF704F8032020214A
:1038A00084F8411001B0BDE8F08300BF0020202162
:1038B00084F8411001B0BDE8F0830000FEE700008D
:1038C0002DE9F04F81B040F22010C2F20000B0F8B4
:1038D00002A0BAF1000F0BD040F2E0100AF003088A
:1038E000BAF1040FC2F2000006D2002400201EE04C
:1038F000002001B0BDE8F08FA0F130072AF00309E5
:1039000000240020796B3D6CFE6CD7F858B001F0B4
:1039100003FB294601F000FB314601F0FDFA594650
:1039200001F0FAFA0434A14507F13007EAD1B8F101
:10393000000F16D040F2E01204EB4401C2F2000284
:1039400002EB8104616801F0E7FAB8F1010F08D0D9
:10395000216901F0E1FAB8F1020F02D0E16901F04A
:10396000DBFA0546504601F081FC0146284601F08D
:103970006BFB01B0BDE8F08F2DE9F04F81B040F254
:103980002010C2F20000B0F802A0BAF1000F0FD070
:1039900040F2E0180AF00309BAF1040FC2F200087D
:1039A0000AD200210020B9F1000F23D136E000BF78
:1039B000002001B0BDE8F08F2AF00300A8F1300725
:1039C000C0F1000B0024002057F8301F01F0A4FACA
:1039D000F968BD697E6A01F09FFA294601F09CFAF8
:1039E000314601F099FA043CA345EDD16142B9F1A9
:1039F000000F13D001EB410458F8241001F08CFAA9
:103A0000B9F1010F0AD008EB8404E16801F084FAEF
:103A1000B9F1020F02D0A16901F07EFA05465046C5
:103A200001F024FC0146284601F00EFB01B0BDE880
:103A3000F08F00002DE9F04F81B040F22010C2F26B
:103A400000004088A0B140F2E016C2F200063468DF
:103A5000012808D0411E0238032801F003070DD2C7
:103A60000120002F43D1204601B0BDE8F08F00BFF8
:103A70000024204601B0BDE8F08F00BFA6F130055C
:103A800021F003094FF0000A009700BFEE6BAF6C06
:103A9000D5F854B0D5F860803046214601F0ACFA34
:103AA000002818BF34463846214601F0A5FA002800
:103AB00018BF3C465846214601F09EFA002818BF20
:103AC0005C464046214601F097FA00280AF1040AB4
:103AD00018BF4446D14505F13005D7D1009F40F2CB
:103AE000E0160AF10100C2F20006002FBBD000EB85
:103AF000400856F828502146284601F07DFA002853
:103B000018BF2C46012FAED006EB8806F56821467B
:103B1000284601F071FA002818BF2C46022FA2D0C7
:103B2000B5692146284601F067FA002818BF2C46DF
:103B3000204601B0BDE8F08F2DE9F04F81B040F292
:103B40002010C2F200004088A0B140F2E016C2F29C
:103B500000063468012808D0411E0238032801F00D
:103B600003070DD20120002F43D1204601B0BDE84C
:103B7000F08F00BF0024204601B0BDE8F08F00BFE9
:103B8000A6F1300521F003094FF0000A009700BFAD
:103B9000EE6BAF6CD5F854B0D5F860803046214656
:103BA00001F03FFA002818BF34463846214601F09C
:103BB00038FA002818BF3C465846214601F031FA31
:103BC000002818BF5C464046214601F02AFA00282A
:103BD0000AF1040A18BF4446D14505F13005D7D192
:103BE000009F40F2E0160AF10100C2F20006002F29
:103BF000BBD000EB400856F828502146284601F07B
:103C000010FA002818BF2C46012FAED006EB88060C
:103C1000F5682146284601F004FA002818BF2C4612
:103C2000022FA2D0B5692146284601F0FAF90028F2
:103C300018BF2C46204601B0BDE8F08F40F220109E
:103C4000C2F200004088704740F22010C2F200002B
:103C50000021016070470000B0B540F2201E40F224
:103C6000A01CC2F2000EC2F2000CBEF80020DCE97B
:103C7000043140F2E01402EB4200C2F2000404EB13
:103C8000800544F82010BCF828006B602881501C87
:103C900081B23129BEF8021088BF00203129AEF868
:103CA00000009CBF481CAEF80200B0BD002818BF41
:103CB000002A01D1704700BF002BFBD01168090A10
:103CC000022988BF7047B0B582B011680DF1180C99
:103CD00000EB010EC1F540710446704615461A46C8
:103CE0006346CDF804C0FCF7DBFA002807D42B6844
:103CF0002946C3F54075A84206D21844086002B0B0
:103D0000BDE8B040704700BF40F2FF2008600020CF
:103D100084F8FF0202B0BDE8B04070477047000071
:103D2000F0B5ADF5437D00200290FEF7BBFD03AC7E
:103D3000064620464FF44071FCF7F7FC45F26477E5
:103D4000C0F6000702AD20462A463B46FFF7AEFF0D
:103D500045F2A073C0F6000320462A46FFF7A6FFEF
:103D600020462A463B46FFF7A1FF45F6F403C0F67E
:103D7000000320462A460096FFF798FF40F2A0165F
:103D8000C2F20006F16A45F63B13C0F60003204676
:103D90002A460091FFF78AFF316B45F60D13C0F6F6
:103DA000000320462A460091FFF780FFB4A3204677
:103DB0002A46FFF77BFF306801F082F845F28773EF
:103DC0000746C0F6000320462A46CDE90071FFF7FA
:103DD0006DFF706801F074F845F24A730746C0F64B
:103DE000000320462A46CDE90071FFF75FFFB06867
:103DF00001F066F845F2CF730746C0F6000320468F
:103E00002A46CDE90071FFF751FFF06801F058F83C
:103E100045F65D030746C0F6000320462A46CDE975
:103E20000071FFF743FF706901F04AF845F674032B
:103E30000746C0F6000320462A46CDE90071FFF789
:103E400035FF306901F03CF845F2EA730746C0F6E9
:103E5000000320462A46CDE90071FFF727FF318D88
:103E600088A320462A460091FFF720FF706A01F0E0
:103E700027F8074689A320462A46CDE90071FFF7B7
:103E800015FFB18E8BA320462A460091FFF70EFF47
:103E900000F0FCF901468DA320462A460091FFF769
:103EA00005FF96F836008FA191A2022808BF0A46A6
:103EB00091A1012818BF114692A320462A460091DD
:103EC000FFF7F4FE96F82A00032807D845F2EC61C4
:103ED000C0F6000151F8201001E000BF8FA145F6A7
:103EE0008B0303AC02ADC0F6000320462A460091C6
:103EF000FFF7DCFE96F82B0045F6A00389A18AA700
:103F00000028C0F6000320462A4608BF0F46009747
:103F1000FFF7CCFEFDF780FCFDF764FC45F6CA0315
:103F20000146C0F6000320462A460091FFF7BEFE78
:103F3000FDF778FC0138C0B2022807D845F2FC61D1
:103F4000C0F6000151F8201004E000BF45F67011E2
:103F5000C0F6000145F6DF0303AC02ADC0F6000376
:103F600020462A460091FFF7A1FEFDF74FFC45F6DB
:103F700051130146C0F6000320462A460091FFF780
:103F800095FEFDF7BDFE45F6B50368A168A70028BC
:103F9000C0F6000320462A4608BF0F460097FFF7E9
:103FA00085FEFDF7A7FE45F2B5730146C0F6000396
:103FB00020462A460091FFF779FEFFF73FFE45F6BF
:103FC00026130146C0F6000320462A460091FFF75B
:103FD0006DFEFFF7D1FC00F073FF45F618030746AE
:103FE000C0F6000320462A46CDE90071FFF75EFEC9
:103FF000FFF766FC00F064FF45F601030746C0F6D4
:10400000000320462A46CDE90071FFF74FFEFFF777
:1040100093FD00F055FF45F62F030746C0F6000359
:1040200020462A46CDE90071FFF740FEFFF702FD6A
:1040300000F046FF45F646030746C0F6000320465B
:104040002A46CDE90071FFF731FE45F26473C0F6F0
:10405000000320462A46FFF729FE029868B103AC08
:104060002046FCF721FB82B240F23840C2F2000049
:1040700021464FF0FF33FFF757FB0DF5437DF0BDB1
:104080000D0A00004151492020202020202020201E
:1040900020203A2025750D0A000000004D4C2050CC
:1040A00052454449435420202020203A20252E31D7
:1040B000660D0A00464F5245434153542041514931
:1040C0002020203A2025750D0A000000464F524559
:1040D000434153542041514920203A2025750D0A6F
:1040E00000000000574F5253454E494E4700000014
:1040F000535441424C450000494D50524F56494E91
:10410000470000005452454E44202020202020200B
:1041100020203A2025730D0A00000000554E4B4E1A
:104120004F574E004F4646004F4E00004E4F000086
:1041300059455300FEE7000080B5FEF7B3FB40F29F
:104140001001C2F200010A685040086080BD000002
:104150002DE9F04740F21008C2F20008D8F800003C
:104160004FF25F3646F20D67C3F66E46C0F219078E
:1041700000FB076444F6D359C1F26209A4FB0901AC
:1041800088094FF47A7100FB114001F06FF840F29A
:10419000000AC4F2C82A514600F056FF0021C4F2BA
:1041A000A01100F0B9FE04FB076441F6F111C0F262
:1041B0007651A4FB0112910940F6B83201FB12417D
:1041C00040F2A015C2F200052860084601F04EF842
:1041D000514600F039FF0021C4F2342100F09CFE6A
:1041E00004FB07646860A4FB0912110A4FF47A62A9
:1041F00001FB1241084601F039F8514600F024FF56
:1042000048F20001C4F2774100F086FE04FB076427
:1042100041F25971CDF2B711A4FB0112A860D5E9A2
:104220000601EB68E861900B44F6206200FB124047
:10423000AB61296201F01AF8514600F005FF002138
:10424000C4F2A00100F068FE04FB076141F685524C
:10425000C6F6D972A1FB0223E860180C42F29F4215
:104260005043A1EB0010C8F8001000F0FFFF5146CA
:1042700000F0EAFE0021C4F2C83100F04DFE2861D2
:10428000BDE8F087FEE700007047000040F2A01094
:10429000C2F20000808E704740F28040C2F20000FF
:1042A00000210160704700002DE9F04740F2A016A0
:1042B000C2F20006D6E9028006F1180A4DF66761DF
:1042C000D6F800909AE89004C3F6917101F04AF88C
:1042D0004AF60261C4F2DE2100F01EFE42F663419E
:1042E0000546CBF66361204601F03CF8294600F014
:1042F00013FE4CF623510446C3F65D51384601F0D7
:1043000031F8214600F008FE4EF20B210446CBF6B0
:104310007D41504601F026F8214600F0FDFD45F2B2
:10432000D7510446CBF6CD51484601F01BF8214643
:1043300000F0F2FD42F288410446CBF6D5514046EA
:1043400001F010F8214600F0E7FD40F28041C2F292
:10435000000108607062BDE8F0870000704700004F
:1043600080B5FFF771FCFFF797FFFDF7D3FCBDE8C1
:104370008040FDF75FBB000070B5FEF793FA40F296
:10438000A016C2F2000604463063FDF769FB40F256
:10439000D405C2F200052868201AB0F57A7F11D33F
:1043A000FFF7D6FEF06A0130F062FDF721FDFDF760
:1043B00049F9FFF751FCFFF777FFFDF753FAFDF7D7
:1043C000B5FC2C60686841F28831201A884238BFF9
:1043D00070BDFFF7A5FC6C6070BD0000FEF768BA09
:1043E00070470000FEE7000094B0FEF76FFA0AACD9
:1043F000201D2421FCF799F902200A9001200E903B
:10440000102000250F9020460395CDE90155119508
:10441000FEF7F6FC20B1EFF3108072B6FEE700BFA6
:104420000F20CDE9040504A80021CDE90655089523
:10443000FEF7E0FB20B1EFF3108072B6FEE700BF9D
:104440004FF0020800276846CDF800800297FEF77B
:104450004FFB28B1EFF3108072B600BFFEE700BF3C
:1044600041F21800CDE90C77CDE90A77C4F20200D9
:10447000016840F6004441F0100101600168C4F297
:10448000010401F0100104910499016804F58065AC
:1044900041F0040101600168002201F0040104916F
:1044A000049901684FF4005641F00801016000686A
:1044B0004FF4005100F00800049004982846FEF7DD
:1044C000EBF9204640F20341002240F20349FEF797
:1044D000E3F90A960AAE4FF0010A28463146CDE9C3
:1044E0000BA7CDF83480FEF7CFF820463146CDE952
:1044F0000A9ACDE90C78FEF7C7F840F22415C2F20B
:1045000000054FF08041284640F8301F4FF6FF71FC
:104510000D97CDE90B77CDE90477C0E90177C0E9C4
:1045200003178761FEF7C2FE20B1EFF3108072B669
:10453000FEE700BF4FF4805005F130060A900AA94B
:104540003046FEF747FF28B1EFF3108072B600BF88
:10455000FEE700BF04A93046FEF768FE20B1EFF386
:10456000108072B6FEE700BF40F23840A4F5484123
:10457000C2F2000000260C234FF4E13280E846002E
:10458000C0E90366C0E90536C661FEF7F3FF28B14E
:10459000EFF3108072B600BFFEE700BF04F5C05015
:1045A0002E732E754FF46021C5E90006AE6001261A
:1045B0002846E9612E61FDF793FD28B1EFF31080E5
:1045C00072B600BFFEE700BF0020CDE90A06072053
:1045D0000C9040F22410C2F200000AA9FDF7DCFCA6
:1045E00020B1EFF3108072B6FEE700BFFFF7A4FD25
:1045F000FDF7EAFBFDF70CF8FDF71AF9FFF78EFB64
:10460000FFF74AFEFFF7ACFE40F22415C2F20005A8
:1046100040F2545840F6AA2940F6A92A1FE000BFEC
:1046200048454FF0000638BF012650454FF00007BF
:1046300020464FF001014FF0000288BF0127FEF72E
:104640002BF9204602213246FEF726F920464FF488
:1046500080613A46FEF720F9C820FEF701F8FFF71F
:104660008BFE2846FDF754FF28466421FDF718FE0F
:104670002846FDF731FD06462846FDF7B1FFB0B2EA
:104680004045CDD8204601210122FEF705F900263C
:104690000027D6E75FEA400C08BF91F0000F4FEA11
:1046A0008C234FEAC12243EA51514FEA1C5018BFF4
:1046B00000F5F0404FEA300018BF41F000415FEADA
:1046C0006C5C00F02980BCF1FF3F08BF40F08040E7
:1046D0007047130C06BF12044FF0100C4FF0000C83
:1046E000130E04BF12020CF1080C130F04BF1201C9
:1046F0000CF1040C930F04BF92000CF1020CD30FC9
:1047000004BF52000CF1010C11464FF00002A0F161
:104710001F00A0EB0C00704711F0004F08BF70475E
:1047200031F000413FF4D5AF0B0C06BF09044FF048
:10473000100C4FF0000C0B0E04BF09020CF1080C1A
:104740000B0F04BF09010CF1040C8B0F04BF89008F
:104750000CF1020CCB0F04BF49000CF1010CCCF1A1
:10476000200322FA03F341EA030102FA0CF2A0EB60
:104770000C0000F10100704723F07F4720F07F4CD0
:1047800080EA030000F00040ACEB070303F57C5324
:1047900003F1FF032DE9804909B44FEA144324EAE9
:1047A00003484FEA154B25EA0B4E0FF2042606EBA1
:1047B00013273E7803FB0667C7F5000707FB06F6DD
:1047C0004FEAD64606F102064FEA543707FB066C5D
:1047D000CCF1005C4FEA1C472CEA074C0CFB06F5B9
:1047E00007FB06F404EB15464FEA961649085FEA04
:1047F000320234BF00204FF000404FEAD13706FBB1
:1048000007FC4FEA1C4C0CFB0BF7D21B03FB0CF70D
:1048100061EB07010CFB0EF7B0EB074072EB1742A0
:104820000CFB08F734BFA2EB0742B2EB074261EB87
:1048300017414FEA0C444FEA910706FB07FC4FEA89
:104840001C4C0CFB0BF7B0EBC74072EB573203FB71
:104850000CF734BFA2EBC742B2EBC74261EB573152
:104860000CFB0EF7B0EBC70072EB57720CFB08F7AE
:1048700034BFA2EBC702B2EBC70261EB57714FEA3C
:10488000816141EA92114FEA826242EA90124FEA54
:10489000806004EBCC04039F4FEAD13706FB07FC92
:1048A0004FEA1C4C0CFB0BF7D21B03FB0CF761EB24
:1048B00007010CFB0EF7B0EB074072EB17420CFB45
:1048C00008F734BFA2EB0742B2EB074261EB174196
:1048D0004FEA8C5504EB9C244FEA910706FB07FC3A
:1048E0004FEA1C4C0CFB0BF7B0EBC74072EB573296
:1048F00003FB0CF734BFA2EBC742B2EBC74261EB3C
:1049000057310CFB0EF7B0EBC70072EB57720CFB84
:1049100008F734BFA2EBC702B2EBC70261EB5771D5
:104920004FEA816141EA92114FEA826242EA9012B3
:104930004FEA806015EB4C2544F100044FEAD13773
:1049400006FB07FC4FEA1C4C0CFB0BF7D21B03FBCE
:104950000CF761EB07010CFB0EF7B0EB074072EBB5
:1049600017420CFB08F734BFA2EB0742B2EB074239
:1049700061EB17414FEA813141EA92414FEA8232BD
:1049800042EA90424FEA80304FEA0C7615EB1C1554
:1049900044F1000448EA03434EEA0B484FF0000E8E
:1049A000B2EB080C71EB030724BF624639464EEBAD
:1049B0000E0E4FF0000B0018524149414BEB0B0B10
:1049C000B2EB080C71EB03077BF1000B24BF6246CE
:1049D00039464EEB0E0E4FF0000B00185241494184
:1049E0004BEB0B0BB2EB080C71EB03077BF1000BED
:1049F00024BF624639464EEB0E0E51EA020718BF3D
:104A000046F0010616EB0E7655F1000254F1000156
:104A100003D5BDE88901BDE80088BDE88901BDE88E
:104A20000048B619524141EB0101A3F1010370475F
:104A300080807F7E7D7C7B7A7978777676757473DB
:104A4000727171706F6E6E6D6C6C6B6A6A6968689A
:104A5000676666656464636362616160605F5F5E30
:104A60005E5D5D5C5C5B5B5A5A59595858575756A6
:104A7000565555555454535352525251515050500B
:104A80004F4F4F4E4E4D4D4D4C4C4C4B4B4B4A4A5D
:104A90004A494949484848474747474646464545A1
:104AA00045444444444343434342424242414141DA
:104AB0009C46002B30D477002BD04FEA37071CB52B
:104AC00003B44FF010004FF01001BAF1000F06D000
:104AD000BCF1000FDCBF40F0080040F008014FF0CF
:104AE00000000FBCBDE810400BF1010BBBF1010F42
:104AF00008BF5FEA170722BF12F1010211F101019D
:104B00004FF0004143F1000300F0004043EA000091
:104B10007047F9D35708D0E746EA06464FEA1646EB
:104B200013F1400F1FDD13F1200FDFBF16430A46BC
:104B3000002120335B42BED0C3F1200746EA06467F
:104B40004FEA164602FA07F746EA070622FA03F288
:104B5000C3F1200701FA07F742EA070221FA03F13D
:104B60004FF00003A7E746EA020646EA06464FEA88
:104B7000164646EA0106BCBF46EA0646360C4FF02A
:104B800000034FF000024FF0000194E72DE9804C44
:104B900070B49A46934691E8380007C831EA400C51
:104BA00048BF34EA430C03D5FFF7E6FDFFF780FF6B
:104BB000F0BCBDE8008C2DE9804C70B49A46934659
:104BC00091E8380007C810F0804F08BF13F0804FFD
:104BD00003D100F005F8FFF76BFFF0BCBDE8008CD7
:104BE00020F07F4723F07F4C80EA030000F0004074
:104BF00007EB0C03A3F57C53A3F1FE0392F0000F27
:104C000000F0B38095F0000F00F077802DE90149A6
:104C10004FEA114021EA00484FEA144624EA0647C9
:104C200000FB06FC08FB06F607FB08F818EB064835
:104C30004CEB164C00FB07F718EB07484CEB174002
:104C40004FEA124B22EA0B4E4FEA154625EA064779
:104C50000BFB06FC0EFB06F607FB0EFE1EEB064EDC
:104C60004CEB164C0BFB07F71EEB074E4CEB174BB0
:104C700018EB0B0840F1000018EB0E0B58EB000886
:104C800040F100008F1A4FF000014FF000063CBFCA
:104C9000C943661B14BFB5EB040C00213CBFC943DC
:104CA000F61B4FEA174427EA04454FEA1C472CEA53
:104CB000074C04FB076205FB07F70CFB05F616EB38
:104CC000074642EB174204FB0CFC16EB0C4642EB8A
:104CD0001C421BEB060658EB020241414EEA8E0EC7
:104CE00046EA9E0601D5BDE80189B619524141EB5D
:104CF0000101A3F10103BDE801894FEA144524EA4B
:104D000005464FEA114721EA074C05FB07F406FB6D
:104D100007F70CFB06F111EB074144EB174405FBC9
:104D20000CFC11EB0C4144EB1C444FEA124722EA05
:104D3000074C05FB07F206FB07F70CFB06F616EB24
:104D4000074642EB174205FB0CFC16EB0C4642EB08
:104D50001C456A1854F1000148BF7047B61952410A
:104D600041EB0101A3F10103704795F0000F37D02B
:104D70004FEA114221EA02464FEA144724EA074C5F
:104D800002FB07F106FB07F70CFB06F414EB0744E4
:104D900041EB174102FB0CFC14EB0C4441EB1C41B2
:104DA0004FEA154725EA074C02FB07F506FB07F714
:104DB0000CFB06F616EB074645EB174502FB0CFC11
:104DC00016EB0C4645EB1C42121951F1000148BF8D
:104DD0007047B619524141EB0101A3F1010370473D
:104DE0004FEA144524EA05464FEA114721EA074CE9
:104DF00005FB07F106FB07F70CFB06F212EB074277
:104E000041EB174105FB0CFC12EB0C4251EB1C4132
:104E10004FF0000648BF7047921841EB0101A3F123
:104E200001037047490050EAC12018BF04204A0D11
:104E300018BF40F0010040F2FF72B2EB515F08BFB3
:104E400040F00200012808BF0520704730380A28CA
:104E500001D20120704700207047000010B50029E2
:104E60000AD00878002807D005487844FCF70EFBE4
:104E7000002801D0002010BD0248784410BD000079
:104E8000EE0B0000E60B000010B500290AD00878F0
:104E9000002807D005487844FCF7F8FA002801D02C
:104EA000002010BD0248784410BD0000DE0B000059
:104EB000D60B00000808A0F500114FEA3101704739
:104EC00043004FEAD30C4FEA3C0C43401FBF40075E
:104ED0000CF1605113F0FE4F70471CF0006F03D1CE
:104EE0000CF00041002070470CF0004343EA507082
:104EF00040EACC0010B500F0B6FA00BF0000009206
:104F00004FEA0001FFF7D6BF4FF00041A1F50021A5
:104F10004FF000007047000090EA010F48BF81F099
:104F2000004100F1F282421A3CBF801A89184FEA10
:104F3000D052A2EBD1534FF07F4C1CEA410F18BF67
:104F40009CEA026F00F03B804FF0004C4CEA0020DE
:104F50004CEA012121FA03FC10EB0C0C1ED202F1E9
:104F6000FF325FEA1C2040EBC25038BF70471CF094
:104F70007F0F4FEA400C18BFBCF17F4F38BF70471E
:104F8000C3F12003994008BF20F00100BCF17F4F1E
:104F900038BF7047A0F1C04000F0ABBA4FEA3C0008
:104FA000000A40EBC25028BF1CF0FF0F4FEA400C34
:104FB000E6D018BFBCF17F4F38BF7047EAE79CEAE4
:104FC000026F05D010EA5C0F08BF00F00040704788
:104FD00010B500F048FA00BF64FBBE3E10B500F00B
:104FE000F5F80CBF0120002010BD10B500F0EEF860
:104FF00014BF0120002010BD10B500F04BF98CBF8C
:105000000120002010BD10B500F044F92CBF012094
:10501000002010BD10B500F071F994BF01200020F0
:1050200010BD10B500F06AF934BF0120002010BD9A
:10503000401058BFC0F14040491058BFC1F1404135
:105040008142EFF3008070474FF47F0C1CEAD012CE
:105050001EBF1CEAD11392EA0C0F93EA0C0F00F06A
:10506000858090EA010F48BF42F4807240F4000C42
:1050700041F400002CF07F4120F07F4000B5A2EB0E
:10508000030281420FF2081CACEB504E9EF800E088
:10509000C0F100004FEA4E0E00FB0EFC38BF490085
:1050A0004FEA2C1C0CFB0EF34FEACE1E0EEB635E98
:1050B0004FEA112C0EFB0CFC4FEAC1214FEA1C53A6
:1050C00000FB031102F5FA024FEA112C0EFB0CFC57
:1050D0004FEA01314FEADC4C00FB0C1142EB22425B
:1050E000C14228BF09184CEB03335DF804EB10EB09
:1050F000410143EBC250B2F57C0F38BF704729D550
:1051000012F0F00F1CBF00F1C04000F000407047EB
:10511000008182838485868788898B8C8D8E8F9190
:105120009293959697999A9C9D9FA0A2A3A5A7A8B4
:10513000AAACAEB0B2B3B5B7B9BCBEC0C2C5C7C9E0
:10514000CCCED1D4D7D9DCDFE2E6E9ECF0F3F7FA44
:10515000FE0000004FEA400C0CF1807CBCF17E4F59
:1051600028BF7047B0F1C04000F0C3B90CEAD113BA
:1051700090EA010F48BF42F48072624538BF634530
:1051800007D213F47F0F16D080EA010000F0004030
:10519000704710B500F067F9097EFC3E00F005B8D5
:1051A00080EA010000F00040704780EA010000F052
:1051B000004000F09EB912F47F0F04BF0248704710
:1051C00080EA010000F095B90000C07F50EA010CB0
:1051D00000F113801CF5000F58BFBCF5000F01D47F
:1051E0008842704707D710F5000F58BF11F5000F20
:1051F00015D488427047894270471CF5000F04D5CA
:10520000BCF5000FF7D5814270474FF0807C1CEB56
:10521000400F38BF1CEB410F01D28142704710B5DF
:1052200000F021F9922449004FF000504FF08051D6
:10523000FFF7FEBE41000B0ED3F19E0208D950F4D9
:1052400000034FEA032323FA02F048BF40427047AD
:1052500010B500F008F900BF499224800020704783
:105260006FF0004282EA200070470000B0FA80F33D
:1052700010FA03F2C3F19D030AD0D90501EB122005
:10528000530638BF704700F1010008BF20F001004D
:105290007047000050EA010C00F113801CF5000F6C
:1052A00058BFBCF5000F01D48842704707D710F5EE
:1052B000000F58BF11F5000F15D48842704789427E
:1052C00070471CF5000F04D5BCF5000FF7D58142DF
:1052D00070474FF0807C1CEB400F38BF1CEB410F38
:1052E00001D28142704710B500F0BDF89224490008
:1052F0004FF080504FF00051FFF79ABE50EA010C7A
:1053000000F113801CF5000F58BFBCF5000F01D44D
:105310008842704707D710F5000F58BF11F5000FEE
:1053200015D488427047894270471CF5000F04D598
:10533000BCF5000FF7D5814270474FF0807C1CEB25
:10534000400F38BF1CEB410F01D28142704710B5AE
:1053500000F089F8922449004FF000504FF080513E
:10536000FFF766BE4FF47F0C1CEAD0121EBF1CEA8A
:10537000D11392EA0C0F93EA0C0F00F0478090EAE9
:10538000010F48BF42F480724FF0004C4CEA0020FD
:105390004CEA012102EB0302A0FB0113A2F500027B
:1053A000002918BF43F001035B0028BF4FEA330315
:1053B00042EB22425FEA132C4CEBC2502EBFBCEBF7
:1053C000436FB2F57C0F70474FEA036CBCF1004F9E
:1053D00008BF20F00100B2F57C0F38BF70470BD535
:1053E00082F0FF0212F5803FC8BF704700F1C04055
:1053F000D8BF00F00040704700F5000C5FEA4C0C8D
:1054000048BF7047B0F1C04000F073B80CEAD11348
:1054100090EA010F48BF42F48072624538BF63458D
:1054200004D280EA010000F00040704710B500F09F
:105430001AF800BF8900013E00F007B800F009B873
:105440005FEA410C5FEA1C6C08D080EA010000F0C2
:1054500050B85FEA400C5FEA1C6CF6D14FF0004098
:10546000A0F5800070470EF1020E2EF0030E5EF8DC
:10547000044B244204D44FEA4102B2F17F4F11D8C9
:105480004FEA4003B3F17F4F0CD80ED14FEAD07CE6
:105490000CEB4C0C0CF1020CB2F17F4F08BF4CEB43
:1054A000D17C04E04FF0080C01E04FEAD17C0CEB1A
:1054B0004C0324FA03F404F00704B4F1040C06D2FC
:1054C0000EEB840CBDE810404CF0010C6047DFE8A7
:1054D0000CF0070802024FF00040A0F5800010BD5C
:1054E0000846420018BFD2F1807288BF00F0004029
:1054F00010BDFF2141EAD050C005704790EA010F6E
:1055000048BF81F000413FF50EAD421A04D882F049
:105510000042A0EB020011444FEAD052A2EBD1535B
:105520004FF07F4C1CEA410F18BF9CEA026F4AD033
:105530004FF0004C4CEA00204CEA012121FA03FC18
:10554000B0EB0C0C0FD412F0FE0F36D05FEA4C001B
:105550001DD5001240EBC25038BF70471CF03F0F02
:1055600018BF70470BE05FEA1C20A2F1010240EB7C
:10557000C25038BF70471CF07F0F18BF7047C3F18F
:105580002003994014BF401E20F0010070474FEAED
:105590001223800808BF7047B0FA80FCA2EB0C020F
:1055A000CCF1280C60FA0CF093EA122F04BF00EB48
:1055B000C25070474FEAC3707047130A5FEADC10AD
:1055C00008BF7047F6E79CEA026F04D010EA5C0F50
:1055D00008BF0020704710B5FFF745FF40DFF63EDB
:1055E00081F000407047FBF721BAFBF7A9BC3031CE
:1055F00032333435363738394142434445464030FA
:1056000058003031323334353637383961626364AB
:1056100065664030780004000008000000000000CB
:105620000002000100001000000000000000000067
:105630003031323334353637383961626364656608
:10564000787000303132333435363738394142439F
:10565000444546585000000002400000000000A0F1
:105660000000000005400000000000C8000000002D
:105670000C4000000000409C0000000019400000A9
:105680000020BCBE0000000034400000BFC91B8EDB
:1056900000000004B5400000504BCFD06607E2CFB9
:1056A000010000006C4100003E8251AADFEEA734E9
:1056B00001000000D9420000DCB5A0E23A301F979B
:1056C000FFFFFFFFB4450000FD25A0C8E9A3C14FBF
:1056D000FFFFFFFFFF3F0000000000800000000010
:1056E000FF3F000000000080000000006B59000830
:1056F0007559000832570008875900088359000877
:10570000675900087E5900080000000000000000F2
:105710000102030406070809000000000102030457
:10572000010202030405060708090A0B0C0D0E0FFF
:1057300010105741524E494E470043524954494375
:10574000414C0044414E4745520048554D4944495B
:1057500054592020202020203A20252E3166202553
:10576000250D0A003D3D3D3D3D3D3D3D3D3D3D3D21
:105770003D3D3D3D3D3D3D3D3D3D3D3D3D3D3D3D59
:105780003D3D3D3D0D0A0054454D50202020202038
:1057900020202020203A20252E316620430D0A00AB
:1057A000414952205155414C495459205245504F7E
:1057B00052540D0A004641554C5420464C41475323
:1057C0002020203A2030782530386C580D0A0050BF
:1057D000524553535552452020202020203A202561
:1057E0002E3166206850610D0A00434F3220202080
:1057F00020202020202020203A20252E31660D0A4E
:105800000041564720434F32202020202020203ABC
:1058100020252E31660D0A0041564720504D322E6C
:105820003520202020203A20252E31660D0A004DFB
:10583000494E20504D322E3520202020203A202560
:105840002E31660D0A004D415820504D322E352024
:10585000202020203A20252E31660D0A00504D329E
:105860002E352052415720202020203A20252E314D
:10587000660D0A00504D322E352046494C54455293
:1058800020203A20252E31660D0A005354415445FC
:105890002020202020202020203A2025730D0A00DF
:1058A000414C41524D2020202020202020203A2011
:1058B00025730D0A004641554C54202020202020FD
:1058C0002020203A2025730D0A00414C41524D20E2
:1058D0004C4556454C2020203A2025730D0A0041A6
:1058E0004C41524D20524541534F4E20203A2025E5
:1058F000730D0A0054494D452020202020202020EF
:1059000020203A20256C75206D730D0A0054494DF6
:10591000455354414D5020202020203A20256C75BD
:10592000206D730D0A0053414D504C4553202020EB
:10593000202020203A2025750D0A0053414D504C5F
:105940004520494420202020203A20256C750D0A4E
:1059500000414C41524D20434F554E542020203A97
:1059600020256C750D0A00434F3200474F4F44000D
:105970004E4F4E45004D4F44455241544500424F15
:105980005448004151490044414E4745524F5553F8
:105990000053616D706C65733D25752020417667FD
:1059A000434F323D252E31662020417667504D32DF
:1059B000353D252E31660D0A004151493D257520A2
:1059C000204D696E3D257520204D61783D2575205F
:1059D000204176673D252E31660D0A00436F6D6DBF
:1059E000616E64733A2068656C70207374617475BD
:1059F000732061716920616C61726D2068697374D4
:105A00006F727920666F7265636173742066617569
:105A10006C740D0A00416C61726D3D257320204C41
:105A20006576656C3D25642020436F756E743D2559
:105A3000750D0A0061716900885B00080000002094
:105A40001800000050010008A05B000818000020AA
:105A5000700A0000700100081C00000043000000F4
:105A6000F8FFFFFF0C0000000E0000000F00000018
:105A70002E0000001001000043000000F8FFFFFFAF
:105A80000040404040404040404041414141414051
:105A90004040404040404040404040404040404006
:105AA0004005020202020202020202020202020295
:105AB000022020202020202020202002020202029A
:105AC00002029090909090901010101010101010F2
:105AD00010101010101010101010101002020202FE
