:020000040800F2
:1000000030070020D901000849200008211E0008FF
:10001000011F0008CD0D0008A52000080000000009
:100020000000000000000000000000005120000857
:10003000D10D0008000000004D2000089D200008A0
:10004000F3010008F3010008F3010008F3010008C0
:10005000F3010008F3010008F3010008F3010008B0
:10006000F3010008F3010008F3010008F3010008A0
:10007000F3010008F3010008F3010008F301000890
:10008000F3010008F3010008F3010008F301000880
:10009000F3010008F3010008F3010008F301000870
:1000A000F3010008F3010008F3010008F301000860
:1000B000F3010008F3010008F3010008F301000850
:1000C000F3010008F3010008F3010008F301000840
:1000D000F3010008F3010008F3010008F301000830
:1000E000F3010008F3010008F301000800F002F832
:1000F00000F063F814A696E8000CB244B344DA4565
:1001000001D100F05AF8BAE80F000FA696E83000C7
:10011000A5EB040504EB0607AAEB0704A7F101070A
:100120004FEA15154FEA3414A4F10104AC4201D38F
:1001300000F043F813F0010F18BFFB1A43F001035E
:1001400000F001F8DBE71847B0300000D0300000C5
:10015000103A24BF78C878C1FAD8520724BF30C8F3
:1001600030C144BF04680C60704700007047000055
:100170000023002400250026103A28BF78C1FBD8B0
:10018000520728BF30C148BF0B607047662902F094
:10019000C087752900F08A80732900F00D84002043
:1001A00070471FB500F00CFC04000020002102F095
:1001B0001DFCE0601FBD10B510BD00F001FD114633
:1001C000FFF7EFFF01F070FF00F01FFD03B4FFF732
:1001D000F2FF03BC00F062FD094880470948004770
:1001E000FEE7FEE7FEE7FEE7FEE7FEE7FEE7FEE7E7
:1001F000FEE7FEE704480549054A064B7047000044
:10020000A1200008ED000008300100203007002088
:1002100030030020300300200FB41CB50C0007AAE7
:10022000009007D04142A14202D32044401E01E089
:100230004FF0FF30074B7B4469460190069800F071
:100240008EFB0021002C01D0009A11701CBC5DF8BF
:1002500014FB00004B07000070B50C460546012A50
:1002600005D02878800600D5EA69002302E0012342
:1002700005E05B1C934202D2E05C0028F9D1A8693A
:10028000E618C01AA861286A184428622846AFF305
:10029000008004E0D5E9012114F8010B9047B44235
:1002A000F8D32846AFF3008070BD00002DE9F0417F
:1002B0000646002410687529314616A510D0AFF304
:1002C0000080002802DA404213A507E031688A075F
:1002D00001D512A502E0490704D511A5012401E0CA
:1002E000AFF3008000210A2206F1240709E0B0FBE9
:1002F000F2FCB0FBF2F302FB1C00303078541846DD
:10030000491C0028F3D123462A463046BDE8F04177
:1003100000F0B9B8000000002D0000002B00000024
:10032000200000002DE9F0474FF0000A89460446FE
:10033000C0F820A02046E1688847002876D025280C
:1003400006D0D4E901219047206A401C2062F1E7E1
:10035000E168204600258847C4F81CA0064600270F
:10036000C4F818A02A2E09D0304602F037FB38B363
:1003700004EB8708303EC8F8186019E059F8041BF0
:10038000204604EB87029161E1688847012F064609
:1003900018D1E069002820DA25F020051DE0D8F802
:1003A000180000EB800006EB40003038C8F8180059
:1003B0002046E1688847064602F010FB0028EED18F
:1003C000012F0AD02E2E08D12046E16888477F1CD5
:1003D0000646022F45F02005C4DBA069002803DA99
:1003E000404245F00105A061E80701D025F0100565
:1003F000B6B1A6F14100192802D8203645F40065AF
:100400004A463146204625604D46FFF7BFFE58B1AB
:10041000012806D0ED1D25F0070000F1080989E745
:1004200004E005F1040985E730468AE7206ABDE863
:10043000F0874FF0000200B51346944696462039E7
:1004400022BFA0E80C50A0E80C50B1F12001BFF48D
:10045000F7AF090728BFA0E80C5048BF0CC05DF8F3
:1004600004EB890028BF40F8042B08BF704748BF41
:1004700020F8022B11F0804F18BF00F8012B7047B5
:100480007047704770472DE9F0470D4699469246F0
:10049000044600F124080168880604D5E06921F0CB
:1004A0001001216000E00120A84201DD471B00E0AF
:1004B0000027A1697A1902EB0900081AA0612078C7
:1004C000C00602D42046AFF30080002608E0D4E93D
:1004D00001211AF806009047206A401C761C206211
:1004E0004E45F4DB2078C0060AD52046AFF30080E5
:1004F00006E0D4E9012130209047206A401C2062A8
:10050000381EA7F10107F4DC07E0D4E9012118F84F
:1005100005009047206A401C2062281EA5F10105B5
:10052000F3DC2046AFF300802078000602D50220DD
:10053000BDE8F0870120FBE72DE9FF4F0C461E4682
:100540004FF0FF378BB0D2E90001DDF860800A90F0
:100550008A46C1F30A5505B93D46002108464FF0C9
:100560000000BAF1000F00F4400005DA00EB800053
:100570004FF4400101EA50004FEA9059B9F1010FE0
:1005800000DDB9460A9850EA4A000ED044F61050F1
:10059000A5F2FF3545432F14B8F1000F1ED0754268
:1005A000291E1EDDC9F100021CE0B8F1010F4FF059
:1005B000000001D0302103E0F24305E02154401C4B
:1005C000B042FBDB30460022002121540B99C1F8D8
:1005D0000880C1E900200FB0BDE8F08FBD1B6D1C85
:1005E000DEE74A4600DA694206A800F073FA06AB75
:1005F00093E8070003AB83E8070050460A9901F02F
:1006000010FE8DE80700A0F500501F3800900398F9
:10061000002D0ADD42F21F014A460844002303A9C7
:100620000390684602F07AF809E0A0F500504A46C7
:100630001F38002303A90390684602F084F88DE870
:1006400007000004000C03D04FF0FF30410800E029
:100650001046B8F1000F03D00022009215461EE0AC
:10066000751E05D400F0B0F9303262556D1EF9D513
:10067000B3460122084302D000227F1C04E0207808
:10068000302801D100227F1E002A099784D01DE066
:10069000112D07DA00F098F9303262556D1C50EADE
:1006A0000102F5D1084302D00098C8B10EE0002144
:1006B000681E05E0235C625C63542254401E491CA2
:1006C0008142F7DBAB46A81B401E0990002004F8CE
:1006D0000B000B98099AC0F80880C0E9002B7AE754
:1006E00011264FF0000857E72DE9F04F88460446E1
:1006F000D21D22F0070191B0D1E90001CDE90A0134
:1007000002F058F902460B98C00F01D02D2007E0E7
:100710002068810701D52B2002E0202101EAC000DA
:10072000032A099001D0072A05DB034641462046EB
:1007300000F090F90BE12078800601D5E06900E037
:100740000620B8F1650F814606D0B8F1660F18D0C3
:10075000B8F1670F70D131E00020B9F1110F0090AE
:1007600001DB112301E009F101030AAA01A90CA888
:10077000FFF7E2FEDDE90C70002609F10105834672
:1007800047E001204B4600904FF000470AAA01A91C
:100790000CA8FFF7D1FEDDE90DB00C995D460026EF
:1007A00010B909F101000D18B9EB050003D4C0F12F
:1007B000FF3609F10105A5EB09002BE0B9F1010FA6
:1007C00001DA4FF001090020B9F1110F00904846FD
:1007D00001DD112300E003460AAA01A90CA8FFF7D6
:1007E000ABFEDDE90C704D460026834620780007FD
:1007F0000AD4AB4500DA5D4601A8012D04DD41199C
:1008000011F8011C302907D04F4502DA17F1040F07
:1008100004DA012082460FE06D1EEEE7002F02DCB5
:10082000ED1B3E4403E0781CA84200DD7D1CB81B94
:1008300000F1010A4FF000472078000703D4AA45D1
:1008400001DB4FF0FF3A0021B7F1004F0DF14308F3
:100850008DF8431024D002202B23002F01DA7F4291
:100860002D230A21021EA0F1010000DC5FB197FBDD
:10087000F1FC97FBF1F201FB1C7C17460CF1300CEC
:1008800008F801CDEEE7A8F1010003702188090501
:1008900001D5452100E06521A0F1010800F8011C07
:1008A00009980FA9A1EB0807FF1D00B1012041190C
:1008B00001EBEA70A1693844081A401EA061207853
:1008C000C00602D42046AFF30080099828B1D4E9CD
:1008D00001219047206A401C20622078C00622D562
:1008E0002046AFF300801EE0002E04DBB34502DD9E
:1008F00001A8805D00E03020D4E901219047206A02
:10090000401C2062761CAAF101005FEA000A0AD1AD
:1009100000F056F8C0680168405CD4E901219047B6
:10092000206A401C2062281EA5F10105DCDC07E0DE
:10093000D4E9012118F8010B9047206A401C20627D
:10094000381EA7F10107F3DC2046AFF30080032037
:1009500011B041E601694A1C02610878704700B590
:100960008FB0CDE901310021059105497944CDE9E8
:10097000031011466846FFF7D5FC0FB000BD00001C
:10098000E5FFFFFFD1E900239A4202D2531C0B601E
:100990001070704710B5436913B1AFF3008001E0E8
:1009A000FFF75AFC012010BD127800F124010A70F3
:1009B00000224A700122EDE711684FF0FF32E9E7AB
:1009C000004870473000002030B5B0F10A0271F1E4
:1009D00000034FEA900E4EEA817EB0EB0E0061EB11
:1009E00091014FEA101E4EEA017E10EB0E0041EB22
:1009F00011114FEA102E4EEA016E10EB0E0041EB82
:100A000011214FEA104E4EEA014E10EB0E0041EB61
:100A10001141401841F100014FEAD00040EA417015
:100A20004FEAD1014FEA810444EA907410EB80054B
:100A300044EB01046D1944EB0404521BA3414FF035
:100A4000000348BF0A3200D530BD401C41F100010F
:100A500030BD00002DE9F0411F4604460326016821
:100A6000072A01F4006004DB08B116A505E016A50D
:100A700003E008B115A500E015A521F010002060E5
:100A8000A069C01EA0610FB1401EA0612046AFF357
:100A900000804FB1D4E9012138469047206A401CBC
:100AA0002062C01C206206E0206AFAE7D4E9012136
:100AB00015F8010B9047761EF8D22046AFF3008060
:100AC000BDE8F0814E414E006E616E00494E460019
:100AD000696E66002DE9F047814616468AB03548B2
:100AE00078440DC88DE80D0032487844801C03AC72
:100AF0000DC884E80D0041F69B300844372190FB77
:100B0000F1F290FBF1F5A5F1800501FB12041B3C0D
:100B100002D56442012000E00020DFF898A0804662
:100B20000027FA44AAF1BE0A0EE0E0070AD03246D6
:100B3000684607EB470101230AEB810101F003FE40
:100B40008DE8070064107F1C002CEED1194F7F4404
:100B5000AE3F19E0E80715D007EB04100DF1180AB5
:100B600090E80E008AE80E00C068F04201D19819A2
:100B700008903246012306A903A801F0E4FD03AB67
:100B800083E807006D10641C002DE3D14FF00103D2
:100B900032466946B8F1000F03A802D001F0BEFD4D
:100BA00001E001F0D0FDC9E90001C9F808200AB050
:100BB000BDE8F087B0260000004870471000002014
:100BC0007546FFF7F9FFAE4605006946534620F02B
:100BD0000700854618B020B5FFF70CFBBDE82040A4
:100BE0004FF000064FF000074FF000084FF0000BE9
:100BF000AC46ACE8C009ACE8C009ACE8C009ACE858
:100C0000C00921F007018D46704710B50446AFF3C7
:100C100000802046BDE81040FFF7D8BA4FF0013CF5
:100C200050F8042B51F8043B9A4221D1A2EB0C035B
:100C3000934313EACC1317D150F8042B51F8043B1B
:100C40009A4215D1A2EB0C03934313EACC130BD1B8
:100C500050F8042B51F8043B9A4209D1A2EB0C0343
:100C6000934313EACC13DBD04FF00000704700BF72
:100C7000D01A01BAB1FA81F101F0180122FA01F09B
:100C8000CB40DBB2C0B2C01AC1F120012CFA01F393
:100C9000D11A914311EAC311E6D1704701491820D6
:100CA000ABBEFEE7260002007047000040F2800065
:100CB000C2F200000021018381767047F0B581B057
:100CC00040F28006C2F2000674690021C4F24011AD
:100CD000204601F051FFE8B949F69A11C4F20D21FE
:100CE000204601F049FFC8B949F69A15C4F25D25BE
:100CF0002046294601F032FF0227002820462946D7
:100D000018BF032701F02AFF7D25002818BFFA2508
:100D100006E000BF1925002702E000BF4B25012790
:100D200034690021C4F296412046B776358301F03C
:100D30002AFF78B10021C4F27A41204601F023FF56
:100D400070B9012F0CD80220772DB07608D8782002
:100D500005E000BF0320C82DB07601D2C820308343
:100D600001B0F0BD40F2800C41F20000C2F2000C74
:100D70000023C4F201004FF4005101228CF81B3013
:100D800000F064B9B0B540F28004C2F20004208BD8
:100D90000021AE2820694FF00005C4F2964188BFBB
:100DA000012501F0E2FE002818BF012045EA0003FA
:100DB00041F2000083F00102C4F201004FF400513F
:100DC000E376BDE8B04000F041B90000FEE7000066
:100DD0007047000040F27000C2F200000021416044
:100DE00001707047F0B581B040F27006C2F20006A3
:100DF000307840F28007C2F20007B8B1F86849F6CF
:100E00009A117468C3F6996102F042F843F23331E3
:100E10000546C3F63371204602F03AF8294601F040
:100E20002DFE7060786101B0F0BD00BFF86801214F
:100E300031707060786101B0F0BD00002DE9F04FB5
:100E400082B00E68002E00F0FD8041F20042C4F234
:100E50000102042340F2004E904208BF03234FF6E4
:100E6000FF7CC4F2010E009300240123C1F2100C98
:100E70004FF0000A4FF000094BE000BF41F20002C2
:100E8000C4F20102009F904208BF022704F00C0345
:100E90000F229A402BEA020207FA03F34FEA9A055F
:100EA0001A4346F825204E6840F20C45F202DEF85F
:100EB000082054BF22EA080242EA0802C4F20105EF
:100EC000CEF808202A68B30254BF22EA080242EA98
:100ED00008022A60B303DEF8042054BF22EA0802A5
:100EE00042EA0802F303CEF80420DEF800204FF0B7
:100EF000010354BF22EA080242EA0802CEF80020A9
:100F00000E680AF1010A36FA0AF204F1040400F04C
:100F1000998003FA0AFB16EA0B08F1D04E68664581
:100F200012DC122E56D8DFE806F0350B4D49555528
:100F3000555555555555555555555545510000BFB5
:100F4000D1F80C9046E000BF4FF6FF72C1F22102CB
:100F500096420FDC0022C1F2110296421AD0002202
:100F6000C1F21202964215D00022C1F2210296422D
:100F700010D02FE00022C1F2220296420AD00022B5
:100F8000C1F23102964205D00022C1F232029642ED
:100F900020D100BF8A684AB1012A14BFC0F814B03A
:100FA000C0F810B04FF0080914E000BF4FF004097A
:100FB00010E000BFCA6802F104090BE04FF000091D
:100FC00008E000BFCA6802F1080903E0CA6802F13C
:100FD0000C0900BF02462646B8F5807F24BF0432C4
:100FE000203E17680F25B54027EA050509FA06F6E1
:100FF00035431560CA79D2067FF582AF41F21803F6
:10100000C4F202031A68AEF57E7642F001021A605D
:101010001A6802F001020192019A2AF0030256F8BE
:1010200002B040F60002C4F20102904208D040F63D
:101030000042C4F2010290427FF420AF012725E76D
:10104000002723E702B0BDE8F08F0000002A08BFA8
:10105000090401617047000040F22C10C2F2000048
:101060000068704740F2000040F22C11C2F200000C
:10107000C2F2000100780A6810440860704700005E
:1010800080B542F20000C4F20200016841F0100194
:101090000160032000F07AF80F2000F005F800F05E
:1010A00027F8002080BD000070B540F20006C2F2B3
:1010B000000640F208013278C2F200014FF47A7360
:1010C0000968B3FBF2F20446B1FBF2F1084600F006
:1010D00073FB0F2C4FF0010508D838B94FF0FF30E3
:1010E00021460022002500F025F87460284670BDD6
:1010F00082B041F21800C4F202000168022241F0FD
:1011000001010160016801F001010191019941684B
:1011100041F080514160406800F08050009000989C
:101120000420C4F20100016862F31A61016002B098
:101130007047000010B54EF60C5CCEF2000CDCF8E7
:101140000030C3F3022E8EF00704042C28BF0424C1
:10115000BEF103034FF0FF3E0EFA04F438BF002344
:10116000A14399400EFA03F39A43114300F00F0292
:1011700000F160430901043A03F564436244002826
:1011800048BF02F10C03197010BD00004EF60C515F
:10119000CEF200010A684FF6FF031A4060F30A22FC
:1011A00042F0806040F0FD7008607047002804BF86
:1011B000012070472DE9F04381B042F20008C4F2EB
:1011C00002080446D8F800000D4600F007008142EE
:1011D0000CD9D8F8000020F007002843C8F8000018
:1011E000D8F8000000F00700A8426CD1206841F256
:1011F00004098107C4F2020917D5410705D5D9F8BA
:10120000001041F4E061C9F80010010705D5D9F8D4
:10121000001041F46051C9F80010D9F80010A2681C
:1012200021F0F0011143C9F80010C00742D1D8F8ED
:10123000000000F0070085420CD2D8F8000020F032
:1012400007002843C8F80000D8F8000000F00700A5
:10125000A84238D12068410707D5D9F80010E268C4
:1012600021F4E0611143C9F80010000708D5D9F84E
:101270000000216920F4605040EAC100C9F8000074
:10128000D9F8002002F00C00082841F20020C0F23A
:101290007A004DD143F2C613C2F38341C0F6000376
:1012A000595CD20338D440F60010C0F23D004843E8
:1012B0003EE000BF606859F8041C022808D00128ED
:1012C00026D1890306D4012001B0BDE8F08300BF18
:1012D0008901F8D5D9F8001021F003010843C9F8B5
:1012E0000000FFF7B9FE064641F28837D9F8000042
:1012F000616800F00C00B0EB810F98D0FFF7ACFEF6
:10130000801BB842F2D9032001B0BDE8F08300BFD2
:101310008907D8D5DEE700BFD9F8002043F2C4130F
:10132000C2F34042C0F600039A5C4843B0FBF2F0BF
:10133000D9F8001043F2AC12C1F30311C0F6000259
:10134000515C40F2080220FA01F140F20400C2F2BE
:1013500000000068C2F200021160FFF7A5FE002045
:1013600001B0BDE8F083000040F2080041F2040142
:10137000C2F20000C4F202010068096843F2BC1224
:10138000C1F30221C0F60002515CC8407047000062
:1013900040F2080041F20401C2F20000C4F202016E
:1013A0000068096843F2BC12C1F3C221C0F6000212
:1013B000515CC84070470000002804BF01207047FE
:1013C0002DE9F04182B00446007841F20006C007E2
:1013D000C4F202060CD0706800F00C00042840F043
:1013E00081803068800303D56068002800F0468162
:1013F000207880071BD5706810F00C0F09D070683A
:1014000000F00C00082840F087807068C00300F1ED
:1014100083803068800703D52069012840F02E8141
:101420003068616920F0F80040EAC100306020783F
:10143000000713D4207840072CD4E569002D00F074
:101440001881706800F00C00082840F0A780012D7A
:1014500040F00481012002B0BDE8F081A0690028BD
:1014600000F084800020C4F242200121C0F88014E2
:10147000FFF7F2FD054600BF706A800700F1B280F9
:10148000FFF7EAFD401B0228F6D9032002B0BDE8B1
:10149000F08100BFF0695FEAC00808D4F06940F04D
:1014A0008050F061F06900F080500090009847F2A1
:1014B0000007C4F200073868C00549D4386840F412
:1014C00080703860FFF7C8FD054600BF3868C0056A
:1014D0003ED4FFF7C1FD401B6428F7D9032002B0BA
:1014E000BDE8F081706800F00C00082803D1706836
:1014F000C0033FF576AF61683068002900F00C81C9
:10150000B1F5A02F00F00081B1F5803F40F01A81C5
:1015100040F480301CE100BF2069002840F2000048
:10152000C4F2422000F0888001210160FFF794FDA1
:10153000054600BF306880073FF572AFFFF78CFDAE
:10154000401B0228F6D9032002B0BDE8F08100BF9D
:10155000E168306A002900F09D80052900F0928042
:10156000012940F0AF8040F00100B1E00020C4F25A
:1015700042200021C0F88014FFF76EFD054600BF31
:10158000706A80077FF556AFFFF766FD401B0228A3
:10159000F6D9032002B0BDE8F08100BF0027C4F2F5
:1015A000422700203866FFF757FD022D05460DD172
:1015B0003068800140F1DE80FFF74EFD401B0228BD
:1015C0004FF00300F4D902B0BDE8F081306880012B
:1015D0004FD5FFF741FD401B02284FF00300F5D91E
:1015E000F1E700BF40F20800C2F20000006844F6D4
:1015F000D351C1F26201A0FB0101480A019000BF72
:1016000000BF0198411E002801913FF413AF00BFB5
:101610000198411E002801913FF40CAF00BF0198D2
:10162000411E002801913FF405AF00BF0198411E03
:1016300000280191E4D1FDE600210160FFF70CFDD7
:10164000054600BF306880077FF5F1AEFFF704FD67
:10165000401B02284FF00300F4D9B4E77068216AF8
:1016600000F480328A4209D1616A00F47010884225
:1016700004D1002002B0BDE8F08100BF012002B01B
:10168000BDE8F08140F004003062306A40F00100B3
:101690001EE000BF20F001003062306A20F004003C
:1016A0003062FFF7D9FC054641F28837306A80077F
:1016B00020D5FFF7D1FC401BB8424FF00300F5D90D
:1016C00081E700BF20F001003062306A20F00400A2
:1016D0003062FFF7C1FC054641F28837306A800767
:1016E00008D4FFF7B9FC401BB842F7D9032002B079
:1016F000BDE8F081B8F1000F3FF59FAEF06920F032
:101700008050F06199E600BF40F48020306030687E
:1017100040F480301CE000BF20F48030306030683E
:1017200020F480203060FFF797FC05463068800386
:101730007FF55EAEFFF790FC401B64284FF003007E
:10174000F4D940E720F480303060306820F4802005
:101750003060FFF781FC0546306880033FF548AEF6
:10176000FFF77AFC401B6428F6D9032002B0BDE8DD
:10177000F08100BF206AB0F5803F05D17168A26892
:1017800021F40031114371607168626A21F47411AF
:1017900011430843706001203866FFF75DFC044682
:1017A000306880013FF565AFFFF756FC001B02284B
:1017B0004FF00300F4D906E7411E0020B0EB116F93
:1017C0001CBF012070474EF21002CEF200025160A1
:1017D0004EF62351CEF20001F0230B7007219060EA
:1017E0001160704790F83C20012A4FF0020236D079
:1017F00010B580F83D200268D2F804E0D2F808C0A5
:101800000C682EF07003234340F2FF74C4F200040E
:10181000A24253600ADCB2F1804F13D040F2004381
:10182000C4F200039A420DD011E000BF42F600431B
:10183000C4F201039A4205D040F60003C4F200034B
:101840009A4204D149682CF0800319439160012128
:10185000002280F83D1080F83C20BDE81040104682
:1018600070470000002804BF0120704710B590F8B1
:101870003D1031B9002180F83C10044600F070F8AA
:101880002046022180F83D10016840F2FF740B6889
:10189000C4F2000442F6004CA142C4F2010C15DC73
:1018A000B1F1804F1AD040F20042C4F200029142DE
:1018B00014D0A14218DCB1F1804F1DD040F200429B
:1018C000C4F20002914217D01AE000BF614505D072
:1018D00040F60002C4F200029142EAD1826823F08D
:1018E00070031343A142E6DD614505D040F60002D6
:1018F000C4F20002914203D1026923F440731343FE
:10190000846923F08002D0F804E0C3682243614573
:101910000A60CB62C1F828E002D14269CCF83020DD
:1019200001224A610B69DB0703D00B6923F0010335
:101930000B6180F8462080F83E2080F83F2080F838
:10194000402080F8412080F8422080F8432080F831
:10195000442080F8452080F83D20002010BD000084
:101960000068B0F1804F18BF704781B041F21C0091
:10197000C4F20200016841F001010160006800F05A
:1019800001000090009801B07047000090F83C20E2
:10199000012A4FF002026CD080B580F83D20D0F8CB
:1019A00000C04FF67772DCF8083023EA0202CCF868
:1019B00008200B684F2B29DC1F2B45DD202B46D040
:1019C000302B44D0402B40F0AF80D1F804E0C96800
:1019D000DCF82030DCF8202022F00102CCF82020B6
:1019E000DCF8182022F0F00242EA011123F00A028A
:1019F00042EA0E02CCF81810CCF82020DCF80810CF
:101A000041F0470121F0300128E000BF6F2B33DDAA
:101A1000B3F5005F74D0B3F5805F21D0702B40F038
:101A20008380D1E901E3C968DCF8082043EA0E03AA
:101A300022F47F4243EA01211143CCF80810DCF87C
:101A4000081041F0770109E00BB1102B6CD1DCF8E4
:101A5000081021F07001194341F00701CCF808107B
:101A60000022012180F83D10002180F83C10BDE8E3
:101A700080401046704700BF502B21D0602B53D1BF
:101A8000D1F804E0C968DCF82030DCF8202022F02E
:101A90001002CCF82020DCF8182022F4704242EA30
:101AA000013123F0A00242EA0E12CCF81810CCF853
:101AB0002020DCF8081041F0670121F01001CDE78B
:101AC000D1F804E0C968DCF82030DCF8202022F0EE
:101AD0000102CCF82020DCF8182022F0F00242EAC3
:101AE000011123F00A0242EA0E02CCF81810CCF8D9
:101AF0002020DCF8081041F0570121F02001ADE76B
:101B0000D1E901E3C968DCF8082043EA0E0322F4B6
:101B10007F4243EA01211143CCF80810DCF8081099
:101B200041F480419AE700BF01229AE7002804BFF0
:101B30000120704710B5044690F8410028B90020F4
:101B400084F84000204600F063F8242084F8410027
:101B50002068D4E90212C36823F40053C360036908
:101B600023F440531A430261D4E904231143C268A9
:101B7000194341F20C639A431143C1604169A26960
:101B800021F44071114343F60002C4F20102904275
:101B9000416103D0FFF7E8FB02E000BFFFF7F8FB6D
:101BA000D4E90023192148439900B0FBF1F048F231
:101BB0001F5CC5F2EB1CA0FB0C314FF69C7349096E
:101BC000C0F6FF7301FB0300322303EB0010A0FB00
:101BD0000C03F02000EA531000EB0110C3F3431193
:101BE000084490601069202120F4904010615069F1
:101BF00020F02A005061D06840F40050D0600020EE
:101C0000606484F8411084F84210606310BD0000E5
:101C100070B586B040F60004C4F201040068A4F573
:101C20004441002688420596CDE90366029601D01C
:101C300006B070BD41F21800C4F20200416802AD66
:101C400041F400314160416801F400310191019992
:101C5000016841F0040101600068294600F00400B9
:101C60000190019804200290022003900320059027
:101C70002046FFF7E3F80820CDE902062046294672
:101C80000496FFF7DBF806B070BD00002DE9F043C5
:101C900081B0044690F84100202809D100294FF076
:101CA000010018BF002A07D101B0BDE8F08300BFD2
:101CB000022001B0BDE8F0830020606421201D46B1
:101CC0000E4684F841001746FFF7C6F9A784E7845B
:101CD000A1688146B1F5805F02D1206900285DD0FE
:101CE00037460020E28C2168002A5DD06A1C24D08F
:101CF000002D4AD0804600BF0868000608D4FFF7D0
:101D0000ABF9A0EB0900A8427AD82168C868F3E7CC
:101D100017B117F8010B04E038F8020B00276FF336
:101D20005F204860E08C0138E084E08C0028E3D13B
:101D30003AE000BF0A68120609D40A68120606D4FF
:101D40000A6812065CBF0A685FEA0262F2D51FB138
:101D500017F8012B05E000BF30F8022B00276FF3C6
:101D60005F224A60E28C013AE284E28C002AE4D1EC
:101D70001AE000BF30F8022B00276FF35F224A60A1
:101D8000E28C013AE284E28C72B10A68120635D51F
:101D9000002FEFD017F8012BF1E700BF00273046E6
:101DA000E28C2168002AA1D1086840061ED42DB318
:101DB000681C14D1086840062AD40868400627D455
:101DC0000868400624D4086840064FF00000F1D5AA
:101DD0000DE000BF2068C1680068400618D4FFF716
:101DE0003BF9A0EB0900A842F4D909E0002020212A
:101DF00084F8411001B0BDE8F08300BFFFF72CF973
:101E00000320202184F8411001B0BDE8F08300BF19
:101E10000020202184F8411001B0BDE8F0830000CB
:101E2000FEE70000704700002DE9F04FB3B040F22C
:101E30008007C2F2000797E831007E6900F0F2FDEA
:101E400080462046894600F0EDFD824628468B46B6
:101E500000F0E8FD044630460D4600F0E3FDBE7E8E
:101E60003A8B032E0B469ABF12A151F826100FA1F0
:101E7000FF7ECDE90821069012A20BA8A0210A97A7
:101E80008DE8000FCDE904450793FEF7C5F9012859
:101E900009DB82B240F2E400C2F200000BA94FF06D
:101EA000FF33FFF7F3FE33B0BDE8F08F554E4B4ED6
:101EB0004F574E00D6310008DB310008E4310008EE
:101EC000EC310008543D252E316620483D252E3149
:101ED0006620503D252E316620504D32353D252E51
:101EE0003166204151493D25752053544154453DAB
:101EF000257320414C41524D3D25750D0A000000CF
:101F0000FEE7000080B5FFF7A7F840F20C01C2F22F
:101F100000010A685040086080BD00002DE9F047CC
:101F200040F20C08C2F20008D8F800004FF25F3609
:101F300046F20D67C3F66E46C0F2190700FB07654F
:101F400044F6D359C1F26209A5FB090188094FF48F
:101F50007A7100FB115000F01FFF40F2000AC4F23A
:101F6000C82A514600F022FE0021C4F2A01100F060
:101F700085FD05FB076441F6F111C0F27651A4FB23
:101F80000112910940F6B83201FB124140F280057E
:101F9000C2F200052860084600F0FEFE514600F03F
:101FA00005FE0021C4F2342100F068FD04FB076443
:101FB0006860A4FB0912110A4FF47A6201FB124116
:101FC000084600F0E9FE514600F0F0FD48F200013D
:101FD000C4F2774100F052FD04FB076441F25971ED
:101FE000CDF2B711A4FB0112910B44F6206201FB64
:101FF0001241A860084600F0CFFE514600F0D6FD21
:102000000021C4F2A00100F039FD04FB076141F694
:102010008552C6F6D972A1FB0223E860180C42F281
:102020009F425043A1EB0010C8F8001000F0B4FE2E
:10203000514600F0BBFD0021C4F2C83100F01EFD86
:102040002861BDE8F0870000FEE70000704700004F
:102050007047000070470000B0B5FEF7FDFF40F28A
:102060007805C2F2000529680446401AB0F57A7F67
:1020700008D3FFF753FFFEF7B5FEFEF71FFEFEF78E
:1020800081FE2C60686841F28831201A884238BF8E
:10209000B0BDFFF7C9FE6C60B0BD0000FEF7E2BF47
:1020A00070470000FEE7000090B0FEF7E9FF06ACC5
:1020B000201D2421FEF7BDF90220069001200A9080
:1020C00010200B90002520460D95FFF775F928B1DB
:1020D000EFF3108072B600BFFEE700BF0F20CDE91E
:1020E000000568460021CDE902550495FFF75EF82A
:1020F00020B1EFF3108072B6FEE700BF002541F279
:102100001800CDE90855CDE90655C4F20200016872
:1021100041F2000441F0100101600168C4F20104C1
:1021200001F01001009100990168002241F00401C2
:10213000016000684FF4005100F004000090009826
:1021400020464FF40056FEF781FF0120CDE9070538
:102150000220099006A920460696FEF76FFE40F27F
:102160009C00C2F200004FF080414FF6FF720995CB
:10217000CDE90755CDE90055C0E90015C0E9025287
:1021800005618561FFF76EFB20B1EFF3108072B639
:10219000FEE700BF4FF48050069040F29C00C2F270
:1021A000000006A9FFF7F2FB20B1EFF3108072B632
:1021B000FEE700BF40F29C00C2F200006946FFF754
:1021C00011FB28B1EFF3108072B600BFFEE700BF2D
:1021D00040F2E400A4F54C41C2F2000000230C26BA
:1021E0004FF4E13280E80E00C0E90333C0E9056333
:1021F000C361FFF79BFC28B1EFF3108072B600BFFC
:10220000FEE700BFFFF77EFEFEF7E4FDFEF74EFDA2
:10221000FEF7A8FDFFF706FEFFF71CFFFFF71CFF08
:10222000FCE75FEA400C08BF91F0000F4FEA8C23F7
:102230004FEAC12243EA51514FEA1C5018BF00F542
:10224000F0404FEA300018BF41F000415FEA6C5C9B
:1022500000F02980BCF1FF3F08BF40F0804070478C
:10226000130C06BF12044FF0100C4FF0000C130EAD
:1022700004BF12020CF1080C130F04BF12010CF181
:10228000040C930F04BF92000CF1020CD30F04BF97
:1022900052000CF1010C11464FF00002A0F11F009A
:1022A000A0EB0C00704711F0004F08BF704731F0F1
:1022B00000413FF4D5AF0B0C06BF09044FF0100CE2
:1022C0004FF0000C0B0E04BF09020CF1080C0B0FB1
:1022D00004BF09010CF1040C8B0F04BF89000CF141
:1022E000020CCB0F04BF49000CF1010CCCF1200310
:1022F00022FA03F341EA030102FA0CF2A0EB0C000C
:1023000000F101007047000023F07F4720F07F4C70
:1023100080EA030000F00040ACEB070303F57C53B8
:1023200003F1FF032DE9804909B44FEA144324EA7D
:1023300003484FEA154B25EA0B4E0FF2042606EB35
:1023400013273E7803FB0667C7F5000707FB06F671
:102350004FEAD64606F102064FEA543707FB066CF1
:10236000CCF1005C4FEA1C472CEA074C0CFB06F54D
:1023700007FB06F404EB15464FEA961649085FEA98
:10238000320234BF00204FF000404FEAD13706FB45
:1023900007FC4FEA1C4C0CFB0BF7D21B03FB0CF7A2
:1023A00061EB07010CFB0EF7B0EB074072EB174235
:1023B0000CFB08F734BFA2EB0742B2EB074261EB1C
:1023C00017414FEA0C444FEA910706FB07FC4FEA1E
:1023D0001C4C0CFB0BF7B0EBC74072EB573203FB06
:1023E0000CF734BFA2EBC742B2EBC74261EB5731E7
:1023F0000CFB0EF7B0EBC70072EB57720CFB08F743
:1024000034BFA2EBC702B2EBC70261EB57714FEAD0
:10241000816141EA92114FEA826242EA90124FEAE8
:10242000806004EBCC04039F4FEAD13706FB07FC26
:102430004FEA1C4C0CFB0BF7D21B03FB0CF761EBB8
:1024400007010CFB0EF7B0EB074072EB17420CFBD9
:1024500008F734BFA2EB0742B2EB074261EB17412A
:102460004FEA8C5504EB9C244FEA910706FB07FCCE
:102470004FEA1C4C0CFB0BF7B0EBC74072EB57322A
:1024800003FB0CF734BFA2EBC742B2EBC74261EBD0
:1024900057310CFB0EF7B0EBC70072EB57720CFB19
:1024A00008F734BFA2EBC702B2EBC70261EB57716A
:1024B0004FEA816141EA92114FEA826242EA901248
:1024C0004FEA806015EB4C2544F100044FEAD13708
:1024D00006FB07FC4FEA1C4C0CFB0BF7D21B03FB63
:1024E0000CF761EB07010CFB0EF7B0EB074072EB4A
:1024F00017420CFB08F734BFA2EB0742B2EB0742CE
:1025000061EB17414FEA813141EA92414FEA823251
:1025100042EA90424FEA80304FEA0C7615EB1C15E8
:1025200044F1000448EA03434EEA0B484FF0000E22
:10253000B2EB080C71EB030724BF624639464EEB41
:102540000E0E4FF0000B0018524149414BEB0B0BA4
:10255000B2EB080C71EB03077BF1000B24BF624662
:1025600039464EEB0E0E4FF0000B00185241494118
:102570004BEB0B0BB2EB080C71EB03077BF1000B81
:1025800024BF624639464EEB0E0E51EA020718BFD1
:1025900046F0010616EB0E7655F1000254F10001EB
:1025A00003D5BDE88901BDE80088BDE88901BDE823
:1025B0000048B619524141EB0101A3F101037047F4
:1025C00080807F7E7D7C7B7A797877767675747370
:1025D000727171706F6E6E6D6C6C6B6A6A6968682F
:1025E000676666656464636362616160605F5F5EC5
:1025F0005E5D5D5C5C5B5B5A5A595958585757563B
:10260000565555555454535352525251515050509F
:102610004F4F4F4E4E4D4D4D4C4C4C4B4B4B4A4AF1
:102620004A49494948484847474747464646454535
:10263000454444444443434343424242424141416E
:102640009C46002B30D477002BD04FEA37071CB5BF
:1026500003B44FF010004FF01001BAF1000F06D094
:10266000BCF1000FDCBF40F0080040F008014FF063
:1026700000000FBCBDE810400BF1010BBBF1010FD6
:1026800008BF5FEA170722BF12F1010211F1010131
:102690004FF0004143F1000300F0004043EA000026
:1026A0007047F9D35708D0E746EA06464FEA164680
:1026B00013F1400F1FDD13F1200FDFBF16430A4651
:1026C000002120335B42BED0C3F1200746EA064614
:1026D0004FEA164602FA07F746EA070622FA03F21D
:1026E000C3F1200701FA07F742EA070221FA03F1D2
:1026F0004FF00003A7E746EA020646EA06464FEA1D
:10270000164646EA0106BCBF46EA0646360C4FF0BE
:1027100000034FF000024FF0000194E72DE9804CD8
:1027200070B49A46934691E8380007C831EA400CE5
:1027300048BF34EA430C03D5FFF7E6FDFFF780FFFF
:10274000F0BCBDE8008C2DE9804C70B49A469346ED
:1027500091E8380007C810F0804F08BF13F0804F91
:1027600003D100F005F8FFF76BFFF0BCBDE8008C6B
:1027700020F07F4723F07F4C80EA030000F0004008
:1027800007EB0C03A3F57C53A3F1FE0392F0000FBB
:1027900000F0B38095F0000F00F077802DE901493B
:1027A0004FEA114021EA00484FEA144624EA06475E
:1027B00000FB06FC08FB06F607FB08F818EB0648CA
:1027C0004CEB164C00FB07F718EB07484CEB174097
:1027D0004FEA124B22EA0B4E4FEA154625EA06470E
:1027E0000BFB06FC0EFB06F607FB0EFE1EEB064E71
:1027F0004CEB164C0BFB07F71EEB074E4CEB174B45
:1028000018EB0B0840F1000018EB0E0B58EB00081A
:1028100040F100008F1A4FF000014FF000063CBF5E
:10282000C943661B14BFB5EB040C00213CBFC94370
:10283000F61B4FEA174427EA04454FEA1C472CEAE7
:10284000074C04FB076205FB07F70CFB05F616EBCC
:10285000074642EB174204FB0CFC16EB0C4642EB1E
:102860001C421BEB060658EB020241414EEA8E0E5B
:1028700046EA9E0601D5BDE80189B619524141EBF1
:102880000101A3F10103BDE801894FEA144524EADF
:1028900005464FEA114721EA074C05FB07F406FB02
:1028A00007F70CFB06F111EB074144EB174405FB5E
:1028B0000CFC11EB0C4144EB1C444FEA124722EA9A
:1028C000074C05FB07F206FB07F70CFB06F616EBB9
:1028D000074642EB174205FB0CFC16EB0C4642EB9D
:1028E0001C456A1854F1000148BF7047B61952419F
:1028F00041EB0101A3F10103704795F0000F37D0C0
:102900004FEA114221EA02464FEA144724EA074CF3
:1029100002FB07F106FB07F70CFB06F414EB074478
:1029200041EB174102FB0CFC14EB0C4441EB1C4146
:102930004FEA154725EA074C02FB07F506FB07F7A8
:102940000CFB06F616EB074645EB174502FB0CFCA5
:1029500016EB0C4645EB1C42121951F1000148BF21
:102960007047B619524141EB0101A3F101037047D1
:102970004FEA144524EA05464FEA114721EA074C7D
:1029800005FB07F106FB07F70CFB06F212EB07420B
:1029900041EB174105FB0CFC12EB0C4251EB1C41C7
:1029A0004FF0000648BF7047921841EB0101A3F1B8
:1029B00001037047490050EAC12018BF04204A0DA6
:1029C00018BF40F0010040F2FF72B2EB515F08BF48
:1029D00040F00200012808BF0520704730380A285F
:1029E00001D20120704700207047000010B5002977
:1029F0000AD00878002807D005487844FEF70EF979
:102A0000002801D0002010BD0248784410BD00000D
:102A10001E080000160800000808A0F500114FEA83
:102A20003101704743004FEAD30C4FEA3C0C43405E
:102A30001FBF40070CF1605113F0FE4F70471CF0B0
:102A4000006F03D10CF00041002070470CF00043F0
:102A500043EA507040EACC0010B500F09AFA00BF8B
:102A6000000000924FEA0001FFF7D6BF4FF000418F
:102A7000A1F500214FF000007047000090EA010F1F
:102A800048BF81F0004100F1D682421A3CBF801A53
:102A900089184FEAD052A2EBD1534FF07F4C1CEA79
:102AA000410F18BF9CEA026F00F03B804FF0004CD2
:102AB0004CEA00204CEA012121FA03FC10EB0C0C3B
:102AC0001ED202F1FF325FEA1C2040EBC25038BF39
:102AD00070471CF07F0F4FEA400C18BFBCF17F4FCE
:102AE00038BF7047C3F12003994008BF20F00100B0
:102AF000BCF17F4F38BF7047A0F1C04000F08FBAE3
:102B00004FEA3C00000A40EBC25028BF1CF0FF0F08
:102B10004FEA400CE6D018BFBCF17F4F38BF70477A
:102B2000EAE79CEA026F05D010EA5C0F08BF00F0EC
:102B30000040704710B500F02CFA00BF64FBBE3EA9
:102B400010B500F0F5F80CBF0120002010BD10B545
:102B500000F0EEF814BF0120002010BD10B500F009
:102B60002FF98CBF0120002010BD10B500F028F90E
:102B70002CBF0120002010BD10B500F055F994BF06
:102B80000120002010BD10B500F04EF934BF012027
:102B9000002010BD401058BFC0F14040491058BF40
:102BA000C1F140418142EFF3008070474FF47F0C48
:102BB0001CEAD0121EBF1CEAD11392EA0C0F93EA52
:102BC0000C0F00F0858090EA010F48BF42F480723C
:102BD00040F4000C41F400002CF07F4120F07F40D5
:102BE00000B5A2EB030281420FF2081CACEB504E81
:102BF0009EF800E0C0F100004FEA4E0E00FB0EFC14
:102C000038BF49004FEA2C1C0CFB0EF34FEACE1ED6
:102C10000EEB635E4FEA112C0EFB0CFC4FEAC12158
:102C20004FEA1C5300FB031102F5FA024FEA112C84
:102C30000EFB0CFC4FEA01314FEADC4C00FB0C119F
:102C400042EB2242C14228BF09184CEB03335DF826
:102C500004EB10EB410143EBC250B2F57C0F38BFDF
:102C6000704729D512F0F00F1CBF00F1C04000F0F2
:102C700000407047008182838485868788898B8C99
:102C80008D8E8F919293959697999A9C9D9FA0A2D5
:102C9000A3A5A7A8AAACAEB0B2B3B5B7B9BCBEC025
:102CA000C2C5C7C9CCCED1D4D7D9DCDFE2E6E9ECC6
:102CB000F0F3F7FAFE0000004FEA400C0CF1807CC4
:102CC000BCF17E4F28BF7047B0F1C04000F0A7B9FB
:102CD0000CEAD11390EA010F48BF42F480726245BA
:102CE00038BF634507D213F47F0F16D080EA010086
:102CF00000F00040704710B500F04BF9097EFC3E33
:102D000000F005B880EA010000F00040704780EA5A
:102D1000010000F0004000F082B912F47F0F04BF00
:102D20000248704780EA010000F079B90000C07FD6
:102D300050EA010C00F113801CF5000F58BFBCF5E0
:102D4000000F01D48842704707D710F5000F58BF15
:102D500011F5000F15D488427047894270471CF561
:102D6000000F04D5BCF5000FF7D5814270474FF036
:102D7000807C1CEB400F38BF1CEB410F01D281421D
:102D8000704710B500F005F9922449004FF000504B
:102D90004FF08051FFF7FEBEB0FA80F310FA03F255
:102DA000C3F19D030AD0D90501EB1220530638BFA9
:102DB000704700F1010008BF20F0010070470000DB
:102DC00050EA010C00F113801CF5000F58BFBCF550
:102DD000000F01D48842704707D710F5000F58BF85
:102DE00011F5000F15D488427047894270471CF5D1
:102DF000000F04D5BCF5000FF7D5814270474FF0A6
:102E0000807C1CEB400F38BF1CEB410F01D281428C
:102E1000704710B500F0BDF8922449004FF0805083
:102E20004FF00051FFF7B6BE50EA010C00F11380DD
:102E30001CF5000F58BFBCF5000F01D48842704745
:102E400007D710F5000F58BF11F5000F15D48842B1
:102E50007047894270471CF5000F04D5BCF5000F80
:102E6000F7D5814270474FF0807C1CEB400F38BF94
:102E70001CEB410F01D28142704710B500F089F878
:102E8000922449004FF000504FF08051FFF782BE6E
:102E90004FF47F0C1CEAD0121EBF1CEAD11392EA39
:102EA0000C0F93EA0C0F00F0478090EA010F48BF27
:102EB00042F480724FF0004C4CEA00204CEA0121B1
:102EC00002EB0302A0FB0113A2F50002002918BFC8
:102ED00043F001035B0028BF4FEA330342EB224279
:102EE0005FEA132C4CEBC2502EBFBCEB436FB2F524
:102EF0007C0F70474FEA036CBCF1004F08BF20F015
:102F00000100B2F57C0F38BF70470BD582F0FF028D
:102F100012F5803FC8BF704700F1C040D8BF00F035
:102F20000040704700F5000C5FEA4C0C48BF70474A
:102F3000B0F1C04000F073B80CEAD11390EA010F71
:102F400048BF42F48072624538BF634504D280EACC
:102F5000010000F00040704710B500F01AF800BF03
:102F60008900013E00F007B800F009B85FEA410CA3
:102F70005FEA1C6C08D080EA010000F050B85FEAFC
:102F8000400C5FEA1C6CF6D14FF00040A0F58000C9
:102F900070470EF1020E2EF0030E5EF8044B244231
:102FA00004D44FEA4102B2F17F4F11D84FEA4003F7
:102FB000B3F17F4F0CD80ED14FEAD07C0CEB4C0C08
:102FC0000CF1020CB2F17F4F08BF4CEBD17C04E056
:102FD0004FF0080C01E04FEAD17C0CEB4C0324FAD3
:102FE00003F404F00704B4F1040C06D20EEB840CD5
:102FF000BDE810404CF0010C6047DFE80CF007081A
:1030000002024FF00040A0F5800010BD08464200CB
:1030100018BFD2F1807288BF00F0004010BDFF21C0
:1030200041EAD050C005704790EA010F48BF81F0D7
:1030300000413FF52AAD421A04D882F00042A0EBCD
:10304000020011444FEAD052A2EBD1534FF07F4C13
:103050001CEA410F18BF9CEA026F4AD04FF0004CA7
:103060004CEA00204CEA012121FA03FCB0EB0C0CE5
:103070000FD412F0FE0F36D05FEA4C001DD50012BF
:1030800040EBC25038BF70471CF03F0F18BF70476D
:103090000BE05FEA1C20A2F1010240EBC25038BFF6
:1030A00070471CF07F0F18BF7047C3F12003994091
:1030B00014BF401E20F0010070474FEA1223800821
:1030C00008BF7047B0FA80FCA2EB0C02CCF1280CD0
:1030D00060FA0CF093EA122F04BF00EBC250704765
:1030E0004FEAC3707047130A5FEADC1008BF7047ED
:1030F000F6E79CEA026F04D010EA5C0F08BF0020DC
:10310000704710B5FFF745FF40DFF63E81F0004005
:103110007047FDF7E9BA000002400000000000A07F
:103120000000000005400000000000C80000000092
:103130000C4000000000409C00000000194000000E
:103140000020BCBE0000000034400000BFC91B8E40
:1031500000000004B5400000504BCFD06607E2CF1E
:10316000010000006C4100003E8251AADFEEA7344E
:1031700001000000D9420000DCB5A0E23A301F9700
:10318000FFFFFFFFB4450000FD25A0C8E9A3C14F24
:10319000FFFFFFFFFF3F0000000000800000000075
:1031A000FF3F000000000080000000000000000061
:1031B00000000000010203040607080900000000E7
:1031C00001020304010202030405060708090A0BB1
:1031D0000C0D0E0F1010474F4F44004D4F444552F9
:1031E000415445005741524E494E470044414E47D5
:1031F00045524F55530000003832000800000020AF
:1032000010000000500100084832000810000020A3
:1032100020070000700100081C00000043000000AF
:10322000F8FFFFFF0C0000000E0000000F00000080
:103230002E0000000000000001000000100000004F
:0832400000127A0078563412E6
:04000005080000ED02
:00000001FF
