:020000040800F2
:10000000C8060020B5010008651400085D1400084A
:1000100061140008BD020008791400080000000007
:100020000000000000000000000000006D14000847
:10003000C1020008000000006914000871140008E3
:10004000CF010008CF010008CF010008CF01000850
:10005000CF010008CF010008C5020008CF01000849
:10006000CF010008CF010008CF010008CF01000830
:10007000CF010008CF010008CF010008CF01000820
:10008000CF010008CF010008CF010008CF01000810
:10009000CF010008CF010008CF010008CF01000800
:1000A000CF010008CF010008CF010008CF010008F0
:1000B000CF010008CF010008CF010008CF010008E0
:1000C000CF010008CF010008CF010008CF010008D0
:1000D000CF010008CF010008CF010008CF010008C0
:1000E000CF010008CF010008CF01000800F002F89E
:1000F00000F050F814A696E8000CB244B344DA4578
:1001000001D100F047F8BAE80F000FA696E83000DA
:10011000A5EB040504EB0607AAEB0704A7F101070A
:100120004FEA15154FEA3414A4F10104AC4201D38F
:1001300000F030F813F0010F18BFFB1A43F0010371
:1001400000F001F8DBE71847141500003415000033
:10015000103A24BF78C878C1FAD8520724BF30C8F3
:1001600030C144BF04680C60704700007047000055
:100170000023002400250026103A28BF78C1FBD8B0
:10018000520728BF30C148BF0B6070471FB51FBD65
:1001900010B510BD00F058F81146FFF7F7FF01F059
:1001A0006DF900F076F803B4FFF7F2FF03BC00F03E
:1001B0007DF800000948804709480047FEE7FEE750
:1001C000FEE7FEE7FEE7FEE7FEE7FEE7FEE7FEE707
:1001D00004480549054A064B70470000751400089D
:1001E000ED000008C8000020C8060020C80200205A
:1001F000C80200204FF0000200B513469446964610
:10020000203922BFA0E80C50A0E80C50B1F1200129
:10021000BFF4F7AF090728BFA0E80C5048BF0CC0D7
:100220005DF804EB890028BF40F8042B08BF704735
:1002300048BF20F8022B11F0804F18BF00F8012BA7
:100240007047704770477047754600F02BF8AE4610
:1002500005006946534620F00700854618B020B5D2
:10026000FFF7B6FFBDE820404FF000064FF0000753
:100270004FF000084FF0000BAC46ACE8C009ACE80A
:10028000C009ACE8C009ACE8C00921F007018D46FF
:10029000704710B50446AFF300802046BDE810401B
:1002A000FFF781BF00487047100000200149182067
:1002B000ABBEFEE72600020070470000FEE700002C
:1002C00070470000012000F02BB80000B0B50446D4
:1002D00000F048F9054640F20000C2F20000007844
:1002E000611C18BF044400BF00F03CF9401BA04251
:1002F000FAD3B0BD012812D180B500F033F940F235
:100300007001C2F200014A68821AC92ABDE8804021
:1003100038BF70470A7882F001020A70486070475F
:1003200040F21441C4F201010A68024214BF08609D
:100330007047FFF7DFBF00002DE9F04F82B00E6875
:10034000002E00F0FD8041F20042C4F201020423BD
:1003500040F2004E904208BF03234FF6FF7CC4F2E8
:10036000010E009300240123C1F2100C4FF0000A8B
:100370004FF000094BE000BF41F20002C4F201025D
:10038000009F904208BF022704F00C030F229A40FE
:100390002BEA020207FA03F34FEA9A051A4346F8DA
:1003A00025204E6840F20C45F202DEF8082054BFCA
:1003B00022EA080242EA0802C4F20105CEF8082047
:1003C0002A68B30254BF22EA080242EA08022A60FD
:1003D000B303DEF8042054BF22EA080242EA08020E
:1003E000F303CEF80420DEF800204FF0010354BFE1
:1003F00022EA080242EA0802CEF800200E680AF15A
:10040000010A36FA0AF204F1040400F0998003FAB2
:100410000AFB16EA0B08F1D04E68664512DC122E74
:1004200056D8DFE806F0350B4D495555555555550D
:100430005555555555555545510000BFD1F80C90AF
:1004400046E000BF4FF6FF72C1F2210296420FDC78
:100450000022C1F2110296421AD00022C1F2120209
:10046000964215D00022C1F22102964210D02FE010
:100470000022C1F2220296420AD00022C1F23102C9
:10048000964205D00022C1F23202964220D100BF2E
:100490008A684AB1012A14BFC0F814B0C0F810B07D
:1004A0004FF0080914E000BF4FF0040910E000BF4E
:1004B000CA6802F104090BE04FF0000908E000BF30
:1004C000CA6802F1080903E0CA6802F10C0900BF1A
:1004D00002462646B8F5807F24BF0432203E1768C6
:1004E0000F25B54027EA050509FA06F635431560DC
:1004F000CA79D2067FF582AF41F21803C4F2020333
:100500001A68AEF57E7642F001021A601A6802F0AF
:1005100001020192019A2AF0030256F802B040F655
:100520000002C4F20102904208D040F60042C4F238
:10053000010290427FF420AF012725E7002723E73F
:1005400002B0BDE8F08F0000C26802EA01039143E7
:1005500041EA034101617047002A08BF09040161B3
:100560007047000040F2C000C2F20000006870470F
:1005700040F2000040F2C001C2F20000C2F20001ED
:1005800000780A68104408607047000080B542F2A5
:100590000000C4F20200016841F010010160032074
:1005A00000F08CF80F2000F005F800F027F800208C
:1005B00080BD000070B540F20006C2F2000640F2B5
:1005C00008013278C2F200014FF47A730968B3FB74
:1005D000F2F20446B1FBF2F1084600F05DFB0F2C8D
:1005E0004FF0010508D838B94FF0FF3021460022FE
:1005F000002500F037F87460284670BD82B041F2E3
:100600001800C4F202000168042241F001010160F7
:10061000016801F0010101910199416841F08051A7
:100620004160406800F08050009000980420C4F2BF
:100630000100016862F31A61016002B070470000B6
:10064000002848BF704700F01F01012202FA01F1A3
:100650001C2202EAD0004EF20012CEF200028150BB
:100660007047000010B54EF60C5CCEF2000CDCF8C2
:100670000030C3F3022E8EF00704042C28BF04249C
:10068000BEF103034FF0FF3E0EFA04F438BF00231F
:10069000A14399400EFA03F39A43114300F00F026D
:1006A00000F160430901043A03F564436244002801
:1006B00048BF02F10C03197010BD00004EF60C513A
:1006C000CEF200010A684FF6FF031A4060F30A22D7
:1006D00042F0806040F0FD7008607047002804BF61
:1006E000012070472DE9F04381B042F20008C4F2C6
:1006F00002080446D8F800000D4600F007008142C9
:100700000CD9D8F8000020F007002843C8F80000F2
:10071000D8F8000000F00700A8426CD1206841F230
:1007200004098107C4F2020917D5410705D5D9F894
:10073000001041F4E061C9F80010010705D5D9F8AF
:10074000001041F46051C9F80010D9F80010A268F7
:1007500021F0F0011143C9F80010C00742D1D8F8C8
:10076000000000F0070085420CD2D8F8000020F00D
:1007700007002843C8F80000D8F8000000F0070080
:10078000A84238D12068410707D5D9F80010E2689F
:1007900021F4E0611143C9F80010000708D5D9F829
:1007A0000000216920F4605040EAC100C9F800004F
:1007B000D9F8002002F00C00082841F20020C0F215
:1007C0007A004DD141F24C63C2F38341C0F600037D
:1007D000595CD20338D440F60010C0F23D004843C3
:1007E0003EE000BF606859F8041C022808D00128C8
:1007F00026D1890306D4012001B0BDE8F08300BFF3
:100800008901F8D5D9F8001021F003010843C9F88F
:100810000000FFF7A7FE064641F28837D9F800002E
:10082000616800F00C00B0EB810F98D0FFF79AFEE2
:10083000801BB842F2D9032001B0BDE8F08300BFAD
:100840008907D8D5DEE700BFD9F8002041F24A6316
:10085000C2F34042C0F600039A5C4843B0FBF2F09A
:10086000D9F8001041F23A62C1F30311C0F6000258
:10087000515C40F2080220FA01F140F20400C2F299
:1008800000000068C2F200021160FFF793FE002032
:1008900001B0BDE8F0830000002804BF01207047CC
:1008A0002DE9F04182B00446007841F20006C0070D
:1008B000C4F202060CD0706800F00C00042840F06E
:1008C00081803068800303D56068002800F046818D
:1008D000207880071BD5706810F00C0F09D0706865
:1008E00000F00C00082840F087807068C00300F119
:1008F00083803068800703D52069012840F02E816D
:100900003068616920F0F80040EAC100306020786A
:10091000000713D4207840072CD4E569002D00F09F
:100920001881706800F00C00082840F0A780012DA5
:1009300040F00481012002B0BDE8F081A0690028E8
:1009400000F084800020C4F242200121C0F880140D
:10095000FFF708FE054600BF706A800700F1B2800D
:10096000FFF700FE401B0228F6D9032002B0BDE8C5
:10097000F08100BFF0695FEAC00808D4F06940F078
:100980008050F061F06900F080500090009847F2CC
:100990000007C4F200073868C00549D4386840F43D
:1009A00080703860FFF7DEFD054600BF3868C0057F
:1009B0003ED4FFF7D7FD401B6428F7D9032002B0CF
:1009C000BDE8F081706800F00C00082803D1706861
:1009D000C0033FF576AF61683068002900F00C81F4
:1009E000B1F5A02F00F00081B1F5803F40F01A81F1
:1009F00040F480301CE100BF2069002840F2000074
:100A0000C4F2422000F0888001210160FFF7AAFDB6
:100A1000054600BF306880073FF572AFFFF7A2FDC3
:100A2000401B0228F6D9032002B0BDE8F08100BFC8
:100A3000E168306A002900F09D80052900F092806D
:100A4000012940F0AF8040F00100B1E00020C4F285
:100A500042200021C0F88014FFF784FD054600BF46
:100A6000706A80077FF556AFFFF77CFD401B0228B8
:100A7000F6D9032002B0BDE8F08100BF0027C4F220
:100A8000422700203866FFF76DFD022D05460DD187
:100A90003068800140F1DE80FFF764FD401B0228D2
:100AA0004FF00300F4D902B0BDE8F0813068800156
:100AB0004FD5FFF757FD401B02284FF00300F5D933
:100AC000F1E700BF40F20800C2F20000006844F6FF
:100AD000D351C1F26201A0FB0101480A019000BF9D
:100AE00000BF0198411E002801913FF413AF00BFE1
:100AF0000198411E002801913FF40CAF00BF0198FE
:100B0000411E002801913FF405AF00BF0198411E2E
:100B100000280191E4D1FDE600210160FFF722FDEC
:100B2000054600BF306880077FF5F1AEFFF71AFD7C
:100B3000401B02284FF00300F4D9B4E77068216A23
:100B400000F480328A4209D1616A00F47010884250
:100B500004D1002002B0BDE8F08100BF012002B046
:100B6000BDE8F08140F004003062306A40F00100DE
:100B70001EE000BF20F001003062306A20F0040067
:100B80003062FFF7EFFC054641F28837306A800794
:100B900020D5FFF7E7FC401BB8424FF00300F5D922
:100BA00081E700BF20F001003062306A20F00400CD
:100BB0003062FFF7D7FC054641F28837306A80077C
:100BC00008D4FFF7CFFC401BB842F7D9032002B08E
:100BD000BDE8F081B8F1000F3FF59FAEF06920F05D
:100BE0008050F06199E600BF40F4802030603068AA
:100BF00040F480301CE000BF20F48030306030686A
:100C000020F480203060FFF7ADFC0546306880039B
:100C10007FF55EAEFFF7A6FC401B64284FF0030093
:100C2000F4D940E720F480303060306820F4802030
:100C30003060FFF797FC0546306880033FF548AE0B
:100C4000FFF790FC401B6428F6D9032002B0BDE8F2
:100C5000F08100BF206AB0F5803F05D17168A268BD
:100C600021F40031114371607168626A21F47411DA
:100C700011430843706001203866FFF773FC044697
:100C8000306880013FF565AFFFF76CFC001B022860
:100C90004FF00300F4D906E7411E0020B0EB116FBE
:100CA0001CBF012070474EF21002CEF200025160CC
:100CB0004EF62351CEF20001F0230B700721906015
:100CC0001160704790F83C20012A4FF0020236D0A4
:100CD00010B580F83D200268D2F804E0D2F808C0D0
:100CE0000C682EF07003234340F2FF74C4F200043A
:100CF000A24253600ADCB2F1804F13D040F20043AD
:100D0000C4F200039A420DD011E000BF42F6004346
:100D1000C4F201039A4205D040F60003C4F2000376
:100D20009A4204D149682CF0800319439160012153
:100D3000002280F83D1080F83C20BDE810401046AD
:100D400070470000002804BF0120704710B590F8DC
:100D50003D1031B9002180F83C10044600F070F8D5
:100D60002046022180F83D10016840F2FF740B68B4
:100D7000C4F2000442F6004CA142C4F2010C15DC9E
:100D8000B1F1804F1AD040F20042C4F20002914209
:100D900014D0A14218DCB1F1804F1DD040F20042C6
:100DA000C4F20002914217D01AE000BF614505D09D
:100DB00040F60002C4F200029142EAD1826823F0B8
:100DC00070031343A142E6DD614505D040F6000201
:100DD000C4F20002914203D1026923F44073134329
:100DE000846923F08002D0F804E0C368224361459F
:100DF0000A60CB62C1F828E002D14269CCF8302009
:100E000001224A610B69DB0703D00B6923F0010360
:100E10000B6180F8462080F83E2080F83F2080F863
:100E2000402080F8412080F8422080F8432080F85C
:100E3000442080F8452080F83D20002010BD0000AF
:100E40000068B0F1804F18BF704781B041F21C00BC
:100E5000C4F20200016841F001010160006800F085
:100E600001000090009801B07047000090F83C200D
:100E7000012A4FF002026CD080B580F83D20D0F8F6
:100E800000C04FF67772DCF8083023EA0202CCF893
:100E900008200B684F2B29DC1F2B45DD202B46D06B
:100EA000302B44D0402B40F0AF80D1F804E0C9682B
:100EB000DCF82030DCF8202022F00102CCF82020E1
:100EC000DCF8182022F0F00242EA011123F00A02B5
:100ED00042EA0E02CCF81810CCF82020DCF80810FA
:100EE00041F0470121F0300128E000BF6F2B33DDD6
:100EF000B3F5005F74D0B3F5805F21D0702B40F064
:100F00008380D1E901E3C968DCF8082043EA0E03D5
:100F100022F47F4243EA01211143CCF80810DCF8A7
:100F2000081041F0770109E00BB1102B6CD1DCF80F
:100F3000081021F07001194341F00701CCF80810A6
:100F40000022012180F83D10002180F83C10BDE80E
:100F500080401046704700BF502B21D0602B53D1EA
:100F6000D1F804E0C968DCF82030DCF8202022F059
:100F70001002CCF82020DCF8182022F4704242EA5B
:100F8000013123F0A00242EA0E12CCF81810CCF87E
:100F90002020DCF8081041F0670121F01001CDE7B6
:100FA000D1F804E0C968DCF82030DCF8202022F019
:100FB0000102CCF82020DCF8182022F0F00242EAEE
:100FC000011123F00A0242EA0E02CCF81810CCF804
:100FD0002020DCF8081041F0570121F02001ADE796
:100FE000D1E901E3C968DCF8082043EA0E0322F4E2
:100FF0007F4243EA01211143CCF80810DCF80810C5
:1010000041F480419AE700BF01229AE780B586B09B
:101010000068B0F1804F4FF00000CDE90400CDE949
:10102000020001D006B080BD41F21800C4F20200F7
:10103000016841F004010160006802A900F00400A9
:10104000019001984FF40040029002200390059017
:1010500040F60000C4F20100FFF76EF90420C4F26C
:10106000010001684FF6FF42CFF6FF02114041F048
:10107000E06141F48071016006B080BD90F83C30C1
:10108000012B04BF022070474FEAB202032A00F28C
:10109000F1802DE9F043DFE802F003A53B7500BFC6
:1010A000036842F600461D6A1A6AC4F2010622F07D
:1010B00001021A621A465C6852F818CFB3428E6871
:1010C000D1F800E025F0020545EA06050CD1CE680E
:1010D000D1E9057824F4407425F00C0526F00406C7
:1010E0003C43354344EA08042CF0730747EA0E07F3
:1010F0005C609F614F6809695F631D629F6947F08B
:1011000008079F619F6927F004079F61A6E000BF61
:10111000036842F600461D6A1A6AC4F2010622F408
:1011200080721A621A46D3F804C052F81CEFB34218
:101130008E680C6825F4007545EA06250FD1CE6847
:10114000D1E90598360240F2FF4725F44065BE43D9
:1011500035432CF4405748EA090647EA061C2EF0AE
:1011600073072743C3F804C0DF614F680969DF6371
:101170001D62DF6947F00807DF61DF6927F00407B8
:10118000DF616BE0036842F60047D3F820C01A6ABB
:10119000C4F2010722F480521A621A465C6852F8BF
:1011A0001C5FD1F800E08E68BB4204D14F6924F483
:1011B000804444EA87142CF4005747EA063725F4A4
:1011C000E64646EA0E265C60DE614E6809691E64EA
:1011D0001F62DF6947F40067DF61DF6927F480671A
:1011E000DF613AE0036842F600461D6A1A6AC4F2FB
:1011F000010622F010021A621A46D3F804C052F80F
:10120000184FB3428E68D1F800E025F0200545EA7A
:1012100006150FD1CE68D1E905986FF0400725F08B
:10122000C00507EA061635432CF4406748EA09066C
:1012300047EA860C24F4E64444EA0E27C3F804C0C7
:101240009F614F6809699F631D629F6947F400674A
:101250009F619F6927F480679F61090213681943A2
:1012600011600021BDE8F043002280F83C200846D0
:10127000704700BF0121002280F83C2008467047DB
:10128000002804BF0120704710B590F83D1031B917
:10129000002180F83C10044600F070F8204602213E
:1012A00080F83D10016840F2FF740B68C4F200043E
:1012B00042F6004CA142C4F2010C15DCB1F1804FA2
:1012C0001AD040F20042C4F20002914214D0A1426E
:1012D00018DCB1F1804F1DD040F20042C4F2000290
:1012E000914217D01AE000BF614505D040F60002D8
:1012F000C4F200029142EAD1826823F070031343E2
:10130000A142E6DD614505D040F60002C4F20002CC
:10131000914203D1026923F440731343846923F09B
:101320008002D0F804E0C368224361450A60CB62C2
:10133000C1F828E002D14269CCF8302001224A618C
:101340000B69DB0703D00B6923F001030B6180F805
:10135000462080F83E2080F83F2080F8402080F82A
:10136000412080F8422080F8432080F8442080F813
:10137000452080F83D20002010BD0000704700008F
:10138000C1B1042908D0082914BF41224022825C3F
:10139000012A05D016E000BF3F22825C012A11D14C
:1013A0000222082910D0042914BF80F8412080F8B7
:1013B0003F200BE090F83E20012A03D1022280F862
:1013C0003E2003E00120704780F84020006801F0D3
:1013D0001F010122036A8A4023EA02010162036AB3
:1013E00042F64441C4F201011A43A1F14403984278
:1013F00002620FD040F2FF71C4F20001884213DC98
:10140000B0F1804F1CD040F20041C4F2000188428C
:1014100016D01CE00A6842F400420A6040F2FF71F4
:10142000C4F200018842EBDD42F60041C4F2010142
:10143000884205D040F60001C4F20001884206D17E
:10144000816801F00701062904BF00207047016888
:1014500041F001010160002070470000FEE700003C
:10146000FEE70000FEE70000704700007047000044
:10147000FFF77EB870470000FEE7000092B0FFF76C
:1014800085F806AC201D2421FEF7B4FE022006904C
:1014900001200A9010200B90002520460D95FFF7A3
:1014A000FBF928B1EFF3108072B600BFFEE700BF72
:1014B0000F20CDE9010501A80021CDE903550595CF
:1014C000FFF70CF920B1EFF3108072B6FEE700BF12
:1014D000002741F21800CDE90877CDE90677C4F27C
:1014E0000200016840F6000441F004010160006858
:1014F000C4F2010400F0040001900198204602218A
:1015000000224FF00208FFF727F800200126C1F261
:10151000210006ADCDE90706204629460696FEF7CE
:101520000BFF20462946CDE90686CDE90878FEF76F
:1015300003FF062000210022FFF794F80620FFF7A2
:101540007FF840F27006C2F200064FF0804130464C
:1015500040F8081F102141F288320497CDE9027744
:10156000CDE91077CDE90B77CDE90977C0E901170F
:10157000C0E903278761FFF7E5FB28B1EFF310808F
:1015800072B600BFFEE700BF4FF4805006F10805B9
:10159000019001A92846FFF769FC28B1EFF31080FC
:1015A00072B600BFFEE700BF2846FFF769FE28B10C
:1015B000EFF3108072B600BFFEE700BF10A9284607
:1015C000FFF780FB20B1EFF3108072B6FEE700BF9B
:1015D000602006904FF4FA700790002008900A905F
:1015E00006A928460022FFF749FD28B1EFF3108035
:1015F00072B600BFFEE700BF2846FFF707FD28468A
:101600000021FFF7BDFE307858B100BF204602210F
:101610000022FEF7A1FF0A20FEF758FE30780028CE
:10162000F4D120460221FEF78FFF4FF47A70FEF7C7
:101630004DFE30780028E9D1F3E7000000000000FB
:101640000000010203040607080901020203040561
:10165000060708090A0B0C0D0E0F10108016000863
:101660000000002010000000500100089016000843
:1016700010000020B8060000700100080000000003
:10168000010000001000000000127A0000000000BD
:04000005080000ED02
:00000001FF
